{
  "abi": [
    {
      "inputs": [
        {
          "internalType": "uint256",
          "name": "",
          "type": "uint256"
        }
      ],
      "name": "campaigns",
      "outputs": [
        {
          "internalType": "address",
          "name": "",
          "type": "address"
        }
      ],
      "stateMutability": "view",
      "type": "function"
    },
    {
      "inputs": [
        {
          "internalType": "uint256",
          "name": "minimum",
          "type": "uint256"
        }
      ],
      "name": "createCampaign",
      "outputs": [],
      "stateMutability": "nonpayable",
      "type": "function"
    },
    {
      "inputs": [],
      "name": "getCampaigns",
      "outputs": [
        {
          "internalType": "address[]",
          "name": "",
          "type": "address[]"
        }
      ],
      "stateMutability": "view",
      "type": "function"
    }
  ],
  "devdoc": {
    "kind": "dev",
    "methods": {},
    "version": 1
  },
  "evm": {
    "assembly": "    /* \"Campaign.sol\":57:397  contract CampaignFactory {... */\n  mstore(0x40, 0x80)\n  callvalue\n  dup1\n  iszero\n  tag_1\n  jumpi\n  0x00\n  dup1\n  revert\ntag_1:\n  pop\n  dataSize(sub_0)\n  dup1\n  dataOffset(sub_0)\n  0x00\n  codecopy\n  0x00\n  return\nstop\n\nsub_0: assembly {\n        /* \"Campaign.sol\":57:397  contract CampaignFactory {... */\n      mstore(0x40, 0x80)\n      callvalue\n      dup1\n      iszero\n      tag_1\n      jumpi\n      0x00\n      dup1\n      revert\n    tag_1:\n      pop\n      jumpi(tag_2, lt(calldatasize, 0x04))\n      shr(0xe0, calldataload(0x00))\n      dup1\n      0x141961bc\n      eq\n      tag_3\n      jumpi\n      dup1\n      0xa3303a75\n      eq\n      tag_4\n      jumpi\n      dup1\n      0xa6b03633\n      eq\n      tag_5\n      jumpi\n    tag_2:\n      0x00\n      dup1\n      revert\n        /* \"Campaign.sol\":89:115  address[] public campaigns */\n    tag_3:\n      tag_6\n      0x04\n      dup1\n      calldatasize\n      sub\n      0x20\n      dup2\n      lt\n      iszero\n      tag_7\n      jumpi\n      0x00\n      dup1\n      revert\n    tag_7:\n      dup2\n      add\n      swap1\n      dup1\n      dup1\n      calldataload\n      swap1\n      0x20\n      add\n      swap1\n      swap3\n      swap2\n      swap1\n      pop\n      pop\n      pop\n      tag_8\n      jump\t// in\n    tag_6:\n      mload(0x40)\n      dup1\n      dup3\n      0xffffffffffffffffffffffffffffffffffffffff\n      and\n      dup2\n      mstore\n      0x20\n      add\n      swap2\n      pop\n      pop\n      mload(0x40)\n      dup1\n      swap2\n      sub\n      swap1\n      return\n        /* \"Campaign.sol\":122:293  function createCampaign(uint minimum) public {... */\n    tag_4:\n      tag_9\n      0x04\n      dup1\n      calldatasize\n      sub\n      0x20\n      dup2\n      lt\n      iszero\n      tag_10\n      jumpi\n      0x00\n      dup1\n      revert\n    tag_10:\n      dup2\n      add\n      swap1\n      dup1\n      dup1\n      calldataload\n      swap1\n      0x20\n      add\n      swap1\n      swap3\n      swap2\n      swap1\n      pop\n      pop\n      pop\n      tag_11\n      jump\t// in\n    tag_9:\n      stop\n        /* \"Campaign.sol\":299:395  function getCampaigns() public view returns (address[] memory) {... */\n    tag_5:\n      tag_12\n      tag_13\n      jump\t// in\n    tag_12:\n      mload(0x40)\n      dup1\n      dup1\n      0x20\n      add\n      dup3\n      dup2\n      sub\n      dup3\n      mstore\n      dup4\n      dup2\n      dup2\n      mload\n      dup2\n      mstore\n      0x20\n      add\n      swap2\n      pop\n      dup1\n      mload\n      swap1\n      0x20\n      add\n      swap1\n      0x20\n      mul\n      dup1\n      dup4\n      dup4\n      0x00\n    tag_14:\n      dup4\n      dup2\n      lt\n      iszero\n      tag_16\n      jumpi\n      dup1\n      dup3\n      add\n      mload\n      dup2\n      dup5\n      add\n      mstore\n      0x20\n      dup2\n      add\n      swap1\n      pop\n      jump(tag_14)\n    tag_16:\n      pop\n      pop\n      pop\n      pop\n      swap1\n      pop\n      add\n      swap3\n      pop\n      pop\n      pop\n      mload(0x40)\n      dup1\n      swap2\n      sub\n      swap1\n      return\n        /* \"Campaign.sol\":89:115  address[] public campaigns */\n    tag_8:\n      0x00\n      dup2\n      dup2\n      sload\n      dup2\n      lt\n      tag_17\n      jumpi\n      invalid\n    tag_17:\n      swap1\n      0x00\n      mstore\n      keccak256(0x00, 0x20)\n      add\n      0x00\n      swap2\n      pop\n      sload\n      swap1\n      0x0100\n      exp\n      swap1\n      div\n      0xffffffffffffffffffffffffffffffffffffffff\n      and\n      dup2\n      jump\t// out\n        /* \"Campaign.sol\":122:293  function createCampaign(uint minimum) public {... */\n    tag_11:\n        /* \"Campaign.sol\":177:200  address contractAddress */\n      0x00\n        /* \"Campaign.sol\":224:234  msg.sender */\n      caller\n        /* \"Campaign.sol\":236:243  minimum */\n      dup3\n        /* \"Campaign.sol\":211:244  new Campaign(msg.sender, minimum) */\n      mload(0x40)\n      tag_20\n      swap1\n      tag_21\n      jump\t// in\n    tag_20:\n      dup1\n      dup4\n      0xffffffffffffffffffffffffffffffffffffffff\n      and\n      dup2\n      mstore\n      0x20\n      add\n      dup3\n      dup2\n      mstore\n      0x20\n      add\n      swap3\n      pop\n      pop\n      pop\n      mload(0x40)\n      dup1\n      swap2\n      sub\n      swap1\n      0x00\n      create\n      dup1\n      iszero\n      dup1\n      iszero\n      tag_22\n      jumpi\n      returndatasize\n      0x00\n      dup1\n      returndatacopy\n      revert(0x00, returndatasize)\n    tag_22:\n      pop\n        /* \"Campaign.sol\":177:245  address contractAddress = address(new Campaign(msg.sender, minimum)) */\n      swap1\n      pop\n        /* \"Campaign.sol\":255:264  campaigns */\n      0x00\n        /* \"Campaign.sol\":270:285  contractAddress */\n      dup2\n        /* \"Campaign.sol\":255:286  campaigns.push(contractAddress) */\n      swap1\n      dup1\n      0x01\n      dup2\n      sload\n      add\n      dup1\n      dup3\n      sstore\n      dup1\n      swap2\n      pop\n      pop\n      0x01\n      swap1\n      sub\n      swap1\n      0x00\n      mstore\n      keccak256(0x00, 0x20)\n      add\n      0x00\n      swap1\n      swap2\n      swap1\n      swap2\n      swap1\n      swap2\n      0x0100\n      exp\n      dup2\n      sload\n      dup2\n      0xffffffffffffffffffffffffffffffffffffffff\n      mul\n      not\n      and\n      swap1\n      dup4\n      0xffffffffffffffffffffffffffffffffffffffff\n      and\n      mul\n      or\n      swap1\n      sstore\n      pop\n        /* \"Campaign.sol\":122:293  function createCampaign(uint minimum) public {... */\n      pop\n      pop\n      jump\t// out\n        /* \"Campaign.sol\":299:395  function getCampaigns() public view returns (address[] memory) {... */\n    tag_13:\n        /* \"Campaign.sol\":344:360  address[] memory */\n      0x60\n        /* \"Campaign.sol\":379:388  campaigns */\n      0x00\n        /* \"Campaign.sol\":372:388  return campaigns */\n      dup1\n      sload\n      dup1\n      0x20\n      mul\n      0x20\n      add\n      mload(0x40)\n      swap1\n      dup2\n      add\n      0x40\n      mstore\n      dup1\n      swap3\n      swap2\n      swap1\n      dup2\n      dup2\n      mstore\n      0x20\n      add\n      dup3\n      dup1\n      sload\n      dup1\n      iszero\n      tag_25\n      jumpi\n      0x20\n      mul\n      dup3\n      add\n      swap2\n      swap1\n      0x00\n      mstore\n      keccak256(0x00, 0x20)\n      swap1\n    tag_26:\n      dup2\n      0x00\n      swap1\n      sload\n      swap1\n      0x0100\n      exp\n      swap1\n      div\n      0xffffffffffffffffffffffffffffffffffffffff\n      and\n      0xffffffffffffffffffffffffffffffffffffffff\n      and\n      dup2\n      mstore\n      0x20\n      add\n      swap1\n      0x01\n      add\n      swap1\n      dup1\n      dup4\n      gt\n      tag_26\n      jumpi\n    tag_25:\n      pop\n      pop\n      pop\n      pop\n      pop\n      swap1\n      pop\n        /* \"Campaign.sol\":299:395  function getCampaigns() public view returns (address[] memory) {... */\n      swap1\n      jump\t// out\n    tag_21:\n      dataSize(sub_0)\n      dup1\n      dataOffset(sub_0)\n      dup4\n      codecopy\n      add\n      swap1\n      jump\t// out\n    stop\n\n    sub_0: assembly {\n            /* \"Campaign.sol\":399:2784  contract Campaign {... */\n          mstore(0x40, 0x80)\n            /* \"Campaign.sol\":896:1023  constructor(address payable creator, uint minimum) public {... */\n          callvalue\n          dup1\n          iszero\n          tag_1\n          jumpi\n          0x00\n          dup1\n          revert\n        tag_1:\n          pop\n          mload(0x40)\n          sub(codesize, bytecodeSize)\n          dup1\n          bytecodeSize\n          dup4\n          codecopy\n          dup2\n          dup2\n          add\n          0x40\n          mstore\n          0x40\n          dup2\n          lt\n          iszero\n          tag_2\n          jumpi\n          0x00\n          dup1\n          revert\n        tag_2:\n          dup2\n          add\n          swap1\n          dup1\n          dup1\n          mload\n          swap1\n          0x20\n          add\n          swap1\n          swap3\n          swap2\n          swap1\n          dup1\n          mload\n          swap1\n          0x20\n          add\n          swap1\n          swap3\n          swap2\n          swap1\n          pop\n          pop\n          pop\n            /* \"Campaign.sol\":974:981  creator */\n          dup2\n            /* \"Campaign.sol\":964:971  manager */\n          0x00\n          dup1\n            /* \"Campaign.sol\":964:981  manager = creator */\n          0x0100\n          exp\n          dup2\n          sload\n          dup2\n          0xffffffffffffffffffffffffffffffffffffffff\n          mul\n          not\n          and\n          swap1\n          dup4\n          0xffffffffffffffffffffffffffffffffffffffff\n          and\n          mul\n          or\n          swap1\n          sstore\n          pop\n            /* \"Campaign.sol\":1009:1016  minimum */\n          dup1\n            /* \"Campaign.sol\":991:1006  minContribution */\n          0x01\n            /* \"Campaign.sol\":991:1016  minContribution = minimum */\n          dup2\n          swap1\n          sstore\n          pop\n            /* \"Campaign.sol\":896:1023  constructor(address payable creator, uint minimum) public {... */\n          pop\n          pop\n            /* \"Campaign.sol\":399:2784  contract Campaign {... */\n          dataSize(sub_0)\n          dup1\n          dataOffset(sub_0)\n          0x00\n          codecopy\n          0x00\n          return\n        stop\n\n        sub_0: assembly {\n                /* \"Campaign.sol\":399:2784  contract Campaign {... */\n              mstore(0x40, 0x80)\n              jumpi(tag_1, lt(calldatasize, 0x04))\n              shr(0xe0, calldataload(0x00))\n              dup1\n              0x6345cb08\n              gt\n              tag_14\n              jumpi\n              dup1\n              0x6345cb08\n              eq\n              tag_8\n              jumpi\n              dup1\n              0x81d12c58\n              eq\n              tag_9\n              jumpi\n              dup1\n              0x8a9cfd55\n              eq\n              tag_10\n              jumpi\n              dup1\n              0xaaffadf3\n              eq\n              tag_11\n              jumpi\n              dup1\n              0xd7bb99ba\n              eq\n              tag_12\n              jumpi\n              dup1\n              0xd7d1bbdb\n              eq\n              tag_13\n              jumpi\n              jump(tag_1)\n            tag_14:\n              dup1\n              0x03441006\n              eq\n              tag_2\n              jumpi\n              dup1\n              0x05af11df\n              eq\n              tag_3\n              jumpi\n              dup1\n              0x0a144391\n              eq\n              tag_4\n              jumpi\n              dup1\n              0x3fad1834\n              eq\n              tag_5\n              jumpi\n              dup1\n              0x4051ddac\n              eq\n              tag_6\n              jumpi\n              dup1\n              0x481c6a75\n              eq\n              tag_7\n              jumpi\n            tag_1:\n              0x00\n              dup1\n              revert\n                /* \"Campaign.sol\":2141:2427  function finalizeRequest(uint requestIdx) public restricted {... */\n            tag_2:\n              callvalue\n              dup1\n              iszero\n              tag_15\n              jumpi\n              0x00\n              dup1\n              revert\n            tag_15:\n              pop\n              tag_16\n              0x04\n              dup1\n              calldatasize\n              sub\n              0x20\n              dup2\n              lt\n              iszero\n              tag_17\n              jumpi\n              0x00\n              dup1\n              revert\n            tag_17:\n              dup2\n              add\n              swap1\n              dup1\n              dup1\n              calldataload\n              swap1\n              0x20\n              add\n              swap1\n              swap3\n              swap2\n              swap1\n              pop\n              pop\n              pop\n              tag_18\n              jump\t// in\n            tag_16:\n              stop\n                /* \"Campaign.sol\":1940:2135  function hasApprovedRequest(uint requestIdx, address userAccount) public view returns (bool) {... */\n            tag_3:\n              callvalue\n              dup1\n              iszero\n              tag_19\n              jumpi\n              0x00\n              dup1\n              revert\n            tag_19:\n              pop\n              tag_20\n              0x04\n              dup1\n              calldatasize\n              sub\n              0x40\n              dup2\n              lt\n              iszero\n              tag_21\n              jumpi\n              0x00\n              dup1\n              revert\n            tag_21:\n              dup2\n              add\n              swap1\n              dup1\n              dup1\n              calldataload\n              swap1\n              0x20\n              add\n              swap1\n              swap3\n              swap2\n              swap1\n              dup1\n              calldataload\n              0xffffffffffffffffffffffffffffffffffffffff\n              and\n              swap1\n              0x20\n              add\n              swap1\n              swap3\n              swap2\n              swap1\n              pop\n              pop\n              pop\n              tag_22\n              jump\t// in\n            tag_20:\n              mload(0x40)\n              dup1\n              dup3\n              iszero\n              iszero\n              dup2\n              mstore\n              0x20\n              add\n              swap2\n              pop\n              pop\n              mload(0x40)\n              dup1\n              swap2\n              sub\n              swap1\n              return\n                /* \"Campaign.sol\":701:742  mapping(address => bool) public approvers */\n            tag_4:\n              callvalue\n              dup1\n              iszero\n              tag_23\n              jumpi\n              0x00\n              dup1\n              revert\n            tag_23:\n              pop\n              tag_24\n              0x04\n              dup1\n              calldatasize\n              sub\n              0x20\n              dup2\n              lt\n              iszero\n              tag_25\n              jumpi\n              0x00\n              dup1\n              revert\n            tag_25:\n              dup2\n              add\n              swap1\n              dup1\n              dup1\n              calldataload\n              0xffffffffffffffffffffffffffffffffffffffff\n              and\n              swap1\n              0x20\n              add\n              swap1\n              swap3\n              swap2\n              swap1\n              pop\n              pop\n              pop\n              tag_26\n              jump\t// in\n            tag_24:\n              mload(0x40)\n              dup1\n              dup3\n              iszero\n              iszero\n              dup2\n              mstore\n              0x20\n              add\n              swap2\n              pop\n              pop\n              mload(0x40)\n              dup1\n              swap2\n              sub\n              swap1\n              return\n                /* \"Campaign.sol\":2433:2526  function getRequestCount() public view returns (uint) {... */\n            tag_5:\n              callvalue\n              dup1\n              iszero\n              tag_27\n              jumpi\n              0x00\n              dup1\n              revert\n            tag_27:\n              pop\n              tag_28\n              tag_29\n              jump\t// in\n            tag_28:\n              mload(0x40)\n              dup1\n              dup3\n              dup2\n              mstore\n              0x20\n              add\n              swap2\n              pop\n              pop\n              mload(0x40)\n              dup1\n              swap2\n              sub\n              swap1\n              return\n                /* \"Campaign.sol\":2532:2782  function getSummary() public view returns (uint, uint, uint, uint, address) {... */\n            tag_6:\n              callvalue\n              dup1\n              iszero\n              tag_30\n              jumpi\n              0x00\n              dup1\n              revert\n            tag_30:\n              pop\n              tag_31\n              tag_32\n              jump\t// in\n            tag_31:\n              mload(0x40)\n              dup1\n              dup7\n              dup2\n              mstore\n              0x20\n              add\n              dup6\n              dup2\n              mstore\n              0x20\n              add\n              dup5\n              dup2\n              mstore\n              0x20\n              add\n              dup4\n              dup2\n              mstore\n              0x20\n              add\n              dup3\n              0xffffffffffffffffffffffffffffffffffffffff\n              and\n              dup2\n              mstore\n              0x20\n              add\n              swap6\n              pop\n              pop\n              pop\n              pop\n              pop\n              pop\n              mload(0x40)\n              dup1\n              swap2\n              sub\n              swap1\n              return\n                /* \"Campaign.sol\":632:662  address payable public manager */\n            tag_7:\n              callvalue\n              dup1\n              iszero\n              tag_33\n              jumpi\n              0x00\n              dup1\n              revert\n            tag_33:\n              pop\n              tag_34\n              tag_35\n              jump\t// in\n            tag_34:\n              mload(0x40)\n              dup1\n              dup3\n              0xffffffffffffffffffffffffffffffffffffffff\n              and\n              dup2\n              mstore\n              0x20\n              add\n              swap2\n              pop\n              pop\n              mload(0x40)\n              dup1\n              swap2\n              sub\n              swap1\n              return\n                /* \"Campaign.sol\":748:772  uint public numApprovers */\n            tag_8:\n              callvalue\n              dup1\n              iszero\n              tag_36\n              jumpi\n              0x00\n              dup1\n              revert\n            tag_36:\n              pop\n              tag_37\n              tag_38\n              jump\t// in\n            tag_37:\n              mload(0x40)\n              dup1\n              dup3\n              dup2\n              mstore\n              0x20\n              add\n              swap2\n              pop\n              pop\n              mload(0x40)\n              dup1\n              swap2\n              sub\n              swap1\n              return\n                /* \"Campaign.sol\":778:803  Request[] public requests */\n            tag_9:\n              callvalue\n              dup1\n              iszero\n              tag_39\n              jumpi\n              0x00\n              dup1\n              revert\n            tag_39:\n              pop\n              tag_40\n              0x04\n              dup1\n              calldatasize\n              sub\n              0x20\n              dup2\n              lt\n              iszero\n              tag_41\n              jumpi\n              0x00\n              dup1\n              revert\n            tag_41:\n              dup2\n              add\n              swap1\n              dup1\n              dup1\n              calldataload\n              swap1\n              0x20\n              add\n              swap1\n              swap3\n              swap2\n              swap1\n              pop\n              pop\n              pop\n              tag_42\n              jump\t// in\n            tag_40:\n              mload(0x40)\n              dup1\n              dup1\n              0x20\n              add\n              dup7\n              dup2\n              mstore\n              0x20\n              add\n              dup6\n              0xffffffffffffffffffffffffffffffffffffffff\n              and\n              dup2\n              mstore\n              0x20\n              add\n              dup5\n              iszero\n              iszero\n              dup2\n              mstore\n              0x20\n              add\n              dup4\n              dup2\n              mstore\n              0x20\n              add\n              dup3\n              dup2\n              sub\n              dup3\n              mstore\n              dup8\n              dup2\n              dup2\n              mload\n              dup2\n              mstore\n              0x20\n              add\n              swap2\n              pop\n              dup1\n              mload\n              swap1\n              0x20\n              add\n              swap1\n              dup1\n              dup4\n              dup4\n              0x00\n            tag_43:\n              dup4\n              dup2\n              lt\n              iszero\n              tag_45\n              jumpi\n              dup1\n              dup3\n              add\n              mload\n              dup2\n              dup5\n              add\n              mstore\n              0x20\n              dup2\n              add\n              swap1\n              pop\n              jump(tag_43)\n            tag_45:\n              pop\n              pop\n              pop\n              pop\n              swap1\n              pop\n              swap1\n              dup2\n              add\n              swap1\n              0x1f\n              and\n              dup1\n              iszero\n              tag_46\n              jumpi\n              dup1\n              dup3\n              sub\n              dup1\n              mload\n              0x01\n              dup4\n              0x20\n              sub\n              0x0100\n              exp\n              sub\n              not\n              and\n              dup2\n              mstore\n              0x20\n              add\n              swap2\n              pop\n            tag_46:\n              pop\n              swap7\n              pop\n              pop\n              pop\n              pop\n              pop\n              pop\n              pop\n              mload(0x40)\n              dup1\n              swap2\n              sub\n              swap1\n              return\n                /* \"Campaign.sol\":1247:1610  function createRequest(string memory description, uint value, address payable recipient)... */\n            tag_10:\n              callvalue\n              dup1\n              iszero\n              tag_47\n              jumpi\n              0x00\n              dup1\n              revert\n            tag_47:\n              pop\n              tag_48\n              0x04\n              dup1\n              calldatasize\n              sub\n              0x60\n              dup2\n              lt\n              iszero\n              tag_49\n              jumpi\n              0x00\n              dup1\n              revert\n            tag_49:\n              dup2\n              add\n              swap1\n              dup1\n              dup1\n              calldataload\n              swap1\n              0x20\n              add\n              swap1\n              0x0100000000\n              dup2\n              gt\n              iszero\n              tag_50\n              jumpi\n              0x00\n              dup1\n              revert\n            tag_50:\n              dup3\n              add\n              dup4\n              0x20\n              dup3\n              add\n              gt\n              iszero\n              tag_51\n              jumpi\n              0x00\n              dup1\n              revert\n            tag_51:\n              dup1\n              calldataload\n              swap1\n              0x20\n              add\n              swap2\n              dup5\n              0x01\n              dup4\n              mul\n              dup5\n              add\n              gt\n              0x0100000000\n              dup4\n              gt\n              or\n              iszero\n              tag_52\n              jumpi\n              0x00\n              dup1\n              revert\n            tag_52:\n              swap2\n              swap1\n              dup1\n              dup1\n              0x1f\n              add\n              0x20\n              dup1\n              swap2\n              div\n              mul\n              0x20\n              add\n              mload(0x40)\n              swap1\n              dup2\n              add\n              0x40\n              mstore\n              dup1\n              swap4\n              swap3\n              swap2\n              swap1\n              dup2\n              dup2\n              mstore\n              0x20\n              add\n              dup4\n              dup4\n              dup1\n              dup3\n              dup5\n              calldatacopy\n              0x00\n              dup2\n              dup5\n              add\n              mstore\n              not(0x1f)\n              0x1f\n              dup3\n              add\n              and\n              swap1\n              pop\n              dup1\n              dup4\n              add\n              swap3\n              pop\n              pop\n              pop\n              pop\n              pop\n              pop\n              pop\n              swap2\n              swap3\n              swap2\n              swap3\n              swap1\n              dup1\n              calldataload\n              swap1\n              0x20\n              add\n              swap1\n              swap3\n              swap2\n              swap1\n              dup1\n              calldataload\n              0xffffffffffffffffffffffffffffffffffffffff\n              and\n              swap1\n              0x20\n              add\n              swap1\n              swap3\n              swap2\n              swap1\n              pop\n              pop\n              pop\n              tag_53\n              jump\t// in\n            tag_48:\n              stop\n                /* \"Campaign.sol\":668:695  uint public minContribution */\n            tag_11:\n              callvalue\n              dup1\n              iszero\n              tag_54\n              jumpi\n              0x00\n              dup1\n              revert\n            tag_54:\n              pop\n              tag_55\n              tag_56\n              jump\t// in\n            tag_55:\n              mload(0x40)\n              dup1\n              dup3\n              dup2\n              mstore\n              0x20\n              add\n              swap2\n              pop\n              pop\n              mload(0x40)\n              dup1\n              swap2\n              sub\n              swap1\n              return\n                /* \"Campaign.sol\":1029:1241  function contribute() public payable {... */\n            tag_12:\n              tag_57\n              tag_58\n              jump\t// in\n            tag_57:\n              stop\n                /* \"Campaign.sol\":1616:1934  function approveRequest(uint requestIdx) public {... */\n            tag_13:\n              callvalue\n              dup1\n              iszero\n              tag_59\n              jumpi\n              0x00\n              dup1\n              revert\n            tag_59:\n              pop\n              tag_60\n              0x04\n              dup1\n              calldatasize\n              sub\n              0x20\n              dup2\n              lt\n              iszero\n              tag_61\n              jumpi\n              0x00\n              dup1\n              revert\n            tag_61:\n              dup2\n              add\n              swap1\n              dup1\n              dup1\n              calldataload\n              swap1\n              0x20\n              add\n              swap1\n              swap3\n              swap2\n              swap1\n              pop\n              pop\n              pop\n              tag_62\n              jump\t// in\n            tag_60:\n              stop\n                /* \"Campaign.sol\":2141:2427  function finalizeRequest(uint requestIdx) public restricted {... */\n            tag_18:\n                /* \"Campaign.sol\":864:871  manager */\n              0x00\n              dup1\n              sload\n              swap1\n              0x0100\n              exp\n              swap1\n              div\n              0xffffffffffffffffffffffffffffffffffffffff\n              and\n                /* \"Campaign.sol\":850:871  msg.sender == manager */\n              0xffffffffffffffffffffffffffffffffffffffff\n              and\n                /* \"Campaign.sol\":850:860  msg.sender */\n              caller\n                /* \"Campaign.sol\":850:871  msg.sender == manager */\n              0xffffffffffffffffffffffffffffffffffffffff\n              and\n              eq\n                /* \"Campaign.sol\":842:872  require(msg.sender == manager) */\n              tag_64\n              jumpi\n              0x00\n              dup1\n              revert\n            tag_64:\n                /* \"Campaign.sol\":2211:2230  Request storage req */\n              0x00\n                /* \"Campaign.sol\":2233:2241  requests */\n              0x04\n                /* \"Campaign.sol\":2242:2252  requestIdx */\n              dup3\n                /* \"Campaign.sol\":2233:2253  requests[requestIdx] */\n              dup2\n              sload\n              dup2\n              lt\n              tag_66\n              jumpi\n              invalid\n            tag_66:\n              swap1\n              0x00\n              mstore\n              keccak256(0x00, 0x20)\n              swap1\n              0x05\n              mul\n              add\n                /* \"Campaign.sol\":2211:2253  Request storage req = requests[requestIdx] */\n              swap1\n              pop\n                /* \"Campaign.sol\":2273:2276  req */\n              dup1\n                /* \"Campaign.sol\":2273:2287  req.isComplete */\n              0x02\n              add\n              0x14\n              swap1\n              sload\n              swap1\n              0x0100\n              exp\n              swap1\n              div\n              0xff\n              and\n                /* \"Campaign.sol\":2272:2287  !req.isComplete */\n              iszero\n                /* \"Campaign.sol\":2264:2288  require(!req.isComplete) */\n              tag_68\n              jumpi\n              0x00\n              dup1\n              revert\n            tag_68:\n                /* \"Campaign.sol\":2342:2343  2 */\n              0x02\n                /* \"Campaign.sol\":2327:2339  numApprovers */\n              sload(0x03)\n                /* \"Campaign.sol\":2327:2343  numApprovers / 2 */\n              dup2\n              tag_69\n              jumpi\n              invalid\n            tag_69:\n              div\n                /* \"Campaign.sol\":2306:2309  req */\n              dup2\n                /* \"Campaign.sol\":2306:2323  req.approvalCount */\n              0x04\n              add\n              sload\n                /* \"Campaign.sol\":2306:2344  req.approvalCount > (numApprovers / 2) */\n              gt\n                /* \"Campaign.sol\":2298:2345  require(req.approvalCount > (numApprovers / 2)) */\n              tag_70\n              jumpi\n              0x00\n              dup1\n              revert\n            tag_70:\n                /* \"Campaign.sol\":2356:2359  req */\n              dup1\n                /* \"Campaign.sol\":2356:2369  req.recipient */\n              0x02\n              add\n              0x00\n              swap1\n              sload\n              swap1\n              0x0100\n              exp\n              swap1\n              div\n              0xffffffffffffffffffffffffffffffffffffffff\n              and\n                /* \"Campaign.sol\":2356:2378  req.recipient.transfer */\n              0xffffffffffffffffffffffffffffffffffffffff\n              and\n                /* \"Campaign.sol\":2356:2389  req.recipient.transfer(req.value) */\n              0x08fc\n                /* \"Campaign.sol\":2379:2382  req */\n              dup3\n                /* \"Campaign.sol\":2379:2388  req.value */\n              0x01\n              add\n              sload\n                /* \"Campaign.sol\":2356:2389  req.recipient.transfer(req.value) */\n              swap1\n              dup2\n              iszero\n              mul\n              swap1\n              mload(0x40)\n              0x00\n              mload(0x40)\n              dup1\n              dup4\n              sub\n              dup2\n              dup6\n              dup9\n              dup9\n              call\n              swap4\n              pop\n              pop\n              pop\n              pop\n              iszero\n              dup1\n              iszero\n              tag_72\n              jumpi\n              returndatasize\n              0x00\n              dup1\n              returndatacopy\n              revert(0x00, returndatasize)\n            tag_72:\n              pop\n                /* \"Campaign.sol\":2416:2420  true */\n              0x01\n                /* \"Campaign.sol\":2399:2402  req */\n              dup2\n                /* \"Campaign.sol\":2399:2413  req.isComplete */\n              0x02\n              add\n              0x14\n                /* \"Campaign.sol\":2399:2420  req.isComplete = true */\n              0x0100\n              exp\n              dup2\n              sload\n              dup2\n              0xff\n              mul\n              not\n              and\n              swap1\n              dup4\n              iszero\n              iszero\n              mul\n              or\n              swap1\n              sstore\n              pop\n                /* \"Campaign.sol\":882:883  _ */\n              pop\n                /* \"Campaign.sol\":2141:2427  function finalizeRequest(uint requestIdx) public restricted {... */\n              pop\n              jump\t// out\n                /* \"Campaign.sol\":1940:2135  function hasApprovedRequest(uint requestIdx, address userAccount) public view returns (bool) {... */\n            tag_22:\n                /* \"Campaign.sol\":2027:2031  bool */\n              0x00\n                /* \"Campaign.sol\":2043:2062  Request storage req */\n              dup1\n                /* \"Campaign.sol\":2065:2073  requests */\n              0x04\n                /* \"Campaign.sol\":2074:2084  requestIdx */\n              dup5\n                /* \"Campaign.sol\":2065:2085  requests[requestIdx] */\n              dup2\n              sload\n              dup2\n              lt\n              tag_74\n              jumpi\n              invalid\n            tag_74:\n              swap1\n              0x00\n              mstore\n              keccak256(0x00, 0x20)\n              swap1\n              0x05\n              mul\n              add\n                /* \"Campaign.sol\":2043:2085  Request storage req = requests[requestIdx] */\n              swap1\n              pop\n                /* \"Campaign.sol\":2102:2105  req */\n              dup1\n                /* \"Campaign.sol\":2102:2115  req.approvals */\n              0x03\n              add\n                /* \"Campaign.sol\":2102:2128  req.approvals[userAccount] */\n              0x00\n                /* \"Campaign.sol\":2116:2127  userAccount */\n              dup5\n                /* \"Campaign.sol\":2102:2128  req.approvals[userAccount] */\n              0xffffffffffffffffffffffffffffffffffffffff\n              and\n              0xffffffffffffffffffffffffffffffffffffffff\n              and\n              dup2\n              mstore\n              0x20\n              add\n              swap1\n              dup2\n              mstore\n              0x20\n              add\n              0x00\n              keccak256\n              0x00\n              swap1\n              sload\n              swap1\n              0x0100\n              exp\n              swap1\n              div\n              0xff\n              and\n                /* \"Campaign.sol\":2095:2128  return req.approvals[userAccount] */\n              swap2\n              pop\n              pop\n                /* \"Campaign.sol\":1940:2135  function hasApprovedRequest(uint requestIdx, address userAccount) public view returns (bool) {... */\n              swap3\n              swap2\n              pop\n              pop\n              jump\t// out\n                /* \"Campaign.sol\":701:742  mapping(address => bool) public approvers */\n            tag_26:\n              mstore(0x20, 0x02)\n              dup1\n              0x00\n              mstore\n              keccak256(0x00, 0x40)\n              0x00\n              swap2\n              pop\n              sload\n              swap1\n              0x0100\n              exp\n              swap1\n              div\n              0xff\n              and\n              dup2\n              jump\t// out\n                /* \"Campaign.sol\":2433:2526  function getRequestCount() public view returns (uint) {... */\n            tag_29:\n                /* \"Campaign.sol\":2481:2485  uint */\n              0x00\n                /* \"Campaign.sol\":2504:2512  requests */\n              0x04\n                /* \"Campaign.sol\":2504:2519  requests.length */\n              dup1\n              sload\n              swap1\n              pop\n                /* \"Campaign.sol\":2497:2519  return requests.length */\n              swap1\n              pop\n                /* \"Campaign.sol\":2433:2526  function getRequestCount() public view returns (uint) {... */\n              swap1\n              jump\t// out\n                /* \"Campaign.sol\":2532:2782  function getSummary() public view returns (uint, uint, uint, uint, address) {... */\n            tag_32:\n                /* \"Campaign.sol\":2575:2579  uint */\n              0x00\n                /* \"Campaign.sol\":2581:2585  uint */\n              dup1\n                /* \"Campaign.sol\":2587:2591  uint */\n              0x00\n                /* \"Campaign.sol\":2593:2597  uint */\n              dup1\n                /* \"Campaign.sol\":2599:2606  address */\n              0x00\n                /* \"Campaign.sol\":2639:2654  minContribution */\n              sload(0x01)\n                /* \"Campaign.sol\":2668:2689  address(this).balance */\n              selfbalance\n                /* \"Campaign.sol\":2703:2711  requests */\n              0x04\n                /* \"Campaign.sol\":2703:2718  requests.length */\n              dup1\n              sload\n              swap1\n              pop\n                /* \"Campaign.sol\":2732:2744  numApprovers */\n              sload(0x03)\n                /* \"Campaign.sol\":2758:2765  manager */\n              0x00\n              dup1\n              sload\n              swap1\n              0x0100\n              exp\n              swap1\n              div\n              0xffffffffffffffffffffffffffffffffffffffff\n              and\n                /* \"Campaign.sol\":2618:2775  return (... */\n              swap5\n              pop\n              swap5\n              pop\n              swap5\n              pop\n              swap5\n              pop\n              swap5\n              pop\n                /* \"Campaign.sol\":2532:2782  function getSummary() public view returns (uint, uint, uint, uint, address) {... */\n              swap1\n              swap2\n              swap3\n              swap4\n              swap5\n              jump\t// out\n                /* \"Campaign.sol\":632:662  address payable public manager */\n            tag_35:\n              0x00\n              dup1\n              sload\n              swap1\n              0x0100\n              exp\n              swap1\n              div\n              0xffffffffffffffffffffffffffffffffffffffff\n              and\n              dup2\n              jump\t// out\n                /* \"Campaign.sol\":748:772  uint public numApprovers */\n            tag_38:\n              sload(0x03)\n              dup2\n              jump\t// out\n                /* \"Campaign.sol\":778:803  Request[] public requests */\n            tag_42:\n              0x04\n              dup2\n              dup2\n              sload\n              dup2\n              lt\n              tag_78\n              jumpi\n              invalid\n            tag_78:\n              swap1\n              0x00\n              mstore\n              keccak256(0x00, 0x20)\n              swap1\n              0x05\n              mul\n              add\n              0x00\n              swap2\n              pop\n              swap1\n              pop\n              dup1\n              0x00\n              add\n              dup1\n              sload\n              0x01\n              dup2\n              0x01\n              and\n              iszero\n              0x0100\n              mul\n              sub\n              and\n              0x02\n              swap1\n              div\n              dup1\n              0x1f\n              add\n              0x20\n              dup1\n              swap2\n              div\n              mul\n              0x20\n              add\n              mload(0x40)\n              swap1\n              dup2\n              add\n              0x40\n              mstore\n              dup1\n              swap3\n              swap2\n              swap1\n              dup2\n              dup2\n              mstore\n              0x20\n              add\n              dup3\n              dup1\n              sload\n              0x01\n              dup2\n              0x01\n              and\n              iszero\n              0x0100\n              mul\n              sub\n              and\n              0x02\n              swap1\n              div\n              dup1\n              iszero\n              tag_80\n              jumpi\n              dup1\n              0x1f\n              lt\n              tag_81\n              jumpi\n              0x0100\n              dup1\n              dup4\n              sload\n              div\n              mul\n              dup4\n              mstore\n              swap2\n              0x20\n              add\n              swap2\n              jump(tag_80)\n            tag_81:\n              dup3\n              add\n              swap2\n              swap1\n              0x00\n              mstore\n              keccak256(0x00, 0x20)\n              swap1\n            tag_82:\n              dup2\n              sload\n              dup2\n              mstore\n              swap1\n              0x01\n              add\n              swap1\n              0x20\n              add\n              dup1\n              dup4\n              gt\n              tag_82\n              jumpi\n              dup3\n              swap1\n              sub\n              0x1f\n              and\n              dup3\n              add\n              swap2\n            tag_80:\n              pop\n              pop\n              pop\n              pop\n              pop\n              swap1\n              dup1\n              0x01\n              add\n              sload\n              swap1\n              dup1\n              0x02\n              add\n              0x00\n              swap1\n              sload\n              swap1\n              0x0100\n              exp\n              swap1\n              div\n              0xffffffffffffffffffffffffffffffffffffffff\n              and\n              swap1\n              dup1\n              0x02\n              add\n              0x14\n              swap1\n              sload\n              swap1\n              0x0100\n              exp\n              swap1\n              div\n              0xff\n              and\n              swap1\n              dup1\n              0x04\n              add\n              sload\n              swap1\n              pop\n              dup6\n              jump\t// out\n                /* \"Campaign.sol\":1247:1610  function createRequest(string memory description, uint value, address payable recipient)... */\n            tag_53:\n                /* \"Campaign.sol\":864:871  manager */\n              0x00\n              dup1\n              sload\n              swap1\n              0x0100\n              exp\n              swap1\n              div\n              0xffffffffffffffffffffffffffffffffffffffff\n              and\n                /* \"Campaign.sol\":850:871  msg.sender == manager */\n              0xffffffffffffffffffffffffffffffffffffffff\n              and\n                /* \"Campaign.sol\":850:860  msg.sender */\n              caller\n                /* \"Campaign.sol\":850:871  msg.sender == manager */\n              0xffffffffffffffffffffffffffffffffffffffff\n              and\n              eq\n                /* \"Campaign.sol\":842:872  require(msg.sender == manager) */\n              tag_84\n              jumpi\n              0x00\n              dup1\n              revert\n            tag_84:\n                /* \"Campaign.sol\":1376:1394  Request memory req */\n              tag_86\n              tag_87\n              jump\t// in\n            tag_86:\n                /* \"Campaign.sol\":1397:1575  Request({... */\n              mload(0x40)\n              dup1\n              0xa0\n              add\n              0x40\n              mstore\n              dup1\n                /* \"Campaign.sol\":1432:1443  description */\n              dup6\n                /* \"Campaign.sol\":1397:1575  Request({... */\n              dup2\n              mstore\n              0x20\n              add\n                /* \"Campaign.sol\":1464:1469  value */\n              dup5\n                /* \"Campaign.sol\":1397:1575  Request({... */\n              dup2\n              mstore\n              0x20\n              add\n                /* \"Campaign.sol\":1494:1503  recipient */\n              dup4\n                /* \"Campaign.sol\":1397:1575  Request({... */\n              0xffffffffffffffffffffffffffffffffffffffff\n              and\n              dup2\n              mstore\n              0x20\n              add\n                /* \"Campaign.sol\":1529:1534  false */\n              0x00\n                /* \"Campaign.sol\":1397:1575  Request({... */\n              iszero\n              iszero\n              dup2\n              mstore\n              0x20\n              add\n                /* \"Campaign.sol\":1563:1564  0 */\n              0x00\n                /* \"Campaign.sol\":1397:1575  Request({... */\n              dup2\n              mstore\n              pop\n                /* \"Campaign.sol\":1376:1575  Request memory req = Request({... */\n              swap1\n              pop\n                /* \"Campaign.sol\":1585:1593  requests */\n              0x04\n                /* \"Campaign.sol\":1599:1602  req */\n              dup2\n                /* \"Campaign.sol\":1585:1603  requests.push(req) */\n              swap1\n              dup1\n              0x01\n              dup2\n              sload\n              add\n              dup1\n              dup3\n              sstore\n              dup1\n              swap2\n              pop\n              pop\n              0x01\n              swap1\n              sub\n              swap1\n              0x00\n              mstore\n              keccak256(0x00, 0x20)\n              swap1\n              0x05\n              mul\n              add\n              0x00\n              swap1\n              swap2\n              swap1\n              swap2\n              swap1\n              swap2\n              pop\n              0x00\n              dup3\n              add\n              mload\n              dup2\n              0x00\n              add\n              swap1\n              dup1\n              mload\n              swap1\n              0x20\n              add\n              swap1\n              tag_89\n              swap3\n              swap2\n              swap1\n              tag_90\n              jump\t// in\n            tag_89:\n              pop\n              0x20\n              dup3\n              add\n              mload\n              dup2\n              0x01\n              add\n              sstore\n              0x40\n              dup3\n              add\n              mload\n              dup2\n              0x02\n              add\n              exp(0x0100, 0x00)\n              dup2\n              sload\n              dup2\n              0xffffffffffffffffffffffffffffffffffffffff\n              mul\n              not\n              and\n              swap1\n              dup4\n              0xffffffffffffffffffffffffffffffffffffffff\n              and\n              mul\n              or\n              swap1\n              sstore\n              pop\n              0x60\n              dup3\n              add\n              mload\n              dup2\n              0x02\n              add\n              exp(0x0100, 0x14)\n              dup2\n              sload\n              dup2\n              0xff\n              mul\n              not\n              and\n              swap1\n              dup4\n              iszero\n              iszero\n              mul\n              or\n              swap1\n              sstore\n              pop\n              0x80\n              dup3\n              add\n              mload\n              dup2\n              0x04\n              add\n              sstore\n              pop\n              pop\n                /* \"Campaign.sol\":882:883  _ */\n              pop\n                /* \"Campaign.sol\":1247:1610  function createRequest(string memory description, uint value, address payable recipient)... */\n              pop\n              pop\n              pop\n              jump\t// out\n                /* \"Campaign.sol\":668:695  uint public minContribution */\n            tag_56:\n              sload(0x01)\n              dup2\n              jump\t// out\n                /* \"Campaign.sol\":1029:1241  function contribute() public payable {... */\n            tag_58:\n                /* \"Campaign.sol\":1097:1112  minContribution */\n              sload(0x01)\n                /* \"Campaign.sol\":1084:1093  msg.value */\n              callvalue\n                /* \"Campaign.sol\":1084:1112  msg.value >= minContribution */\n              lt\n              iszero\n                /* \"Campaign.sol\":1076:1113  require(msg.value >= minContribution) */\n              tag_92\n              jumpi\n              0x00\n              dup1\n              revert\n            tag_92:\n                /* \"Campaign.sol\":1128:1137  approvers */\n              0x02\n                /* \"Campaign.sol\":1128:1149  approvers[msg.sender] */\n              0x00\n                /* \"Campaign.sol\":1138:1148  msg.sender */\n              caller\n                /* \"Campaign.sol\":1128:1149  approvers[msg.sender] */\n              0xffffffffffffffffffffffffffffffffffffffff\n              and\n              0xffffffffffffffffffffffffffffffffffffffff\n              and\n              dup2\n              mstore\n              0x20\n              add\n              swap1\n              dup2\n              mstore\n              0x20\n              add\n              0x00\n              keccak256\n              0x00\n              swap1\n              sload\n              swap1\n              0x0100\n              exp\n              swap1\n              div\n              0xff\n              and\n                /* \"Campaign.sol\":1123:1235  if (!approvers[msg.sender]) {... */\n              tag_93\n              jumpi\n                /* \"Campaign.sol\":1189:1193  true */\n              0x01\n                /* \"Campaign.sol\":1165:1174  approvers */\n              0x02\n                /* \"Campaign.sol\":1165:1186  approvers[msg.sender] */\n              0x00\n                /* \"Campaign.sol\":1175:1185  msg.sender */\n              caller\n                /* \"Campaign.sol\":1165:1186  approvers[msg.sender] */\n              0xffffffffffffffffffffffffffffffffffffffff\n              and\n              0xffffffffffffffffffffffffffffffffffffffff\n              and\n              dup2\n              mstore\n              0x20\n              add\n              swap1\n              dup2\n              mstore\n              0x20\n              add\n              0x00\n              keccak256\n              0x00\n                /* \"Campaign.sol\":1165:1193  approvers[msg.sender] = true */\n              0x0100\n              exp\n              dup2\n              sload\n              dup2\n              0xff\n              mul\n              not\n              and\n              swap1\n              dup4\n              iszero\n              iszero\n              mul\n              or\n              swap1\n              sstore\n              pop\n                /* \"Campaign.sol\":1223:1224  1 */\n              0x01\n                /* \"Campaign.sol\":1207:1219  numApprovers */\n              0x03\n              0x00\n                /* \"Campaign.sol\":1207:1224  numApprovers += 1 */\n              dup3\n              dup3\n              sload\n              add\n              swap3\n              pop\n              pop\n              dup2\n              swap1\n              sstore\n              pop\n                /* \"Campaign.sol\":1123:1235  if (!approvers[msg.sender]) {... */\n            tag_93:\n                /* \"Campaign.sol\":1029:1241  function contribute() public payable {... */\n              jump\t// out\n                /* \"Campaign.sol\":1616:1934  function approveRequest(uint requestIdx) public {... */\n            tag_62:\n                /* \"Campaign.sol\":1674:1693  Request storage req */\n              0x00\n                /* \"Campaign.sol\":1696:1704  requests */\n              0x04\n                /* \"Campaign.sol\":1705:1715  requestIdx */\n              dup3\n                /* \"Campaign.sol\":1696:1716  requests[requestIdx] */\n              dup2\n              sload\n              dup2\n              lt\n              tag_95\n              jumpi\n              invalid\n            tag_95:\n              swap1\n              0x00\n              mstore\n              keccak256(0x00, 0x20)\n              swap1\n              0x05\n              mul\n              add\n                /* \"Campaign.sol\":1674:1716  Request storage req = requests[requestIdx] */\n              swap1\n              pop\n                /* \"Campaign.sol\":1748:1757  approvers */\n              0x02\n                /* \"Campaign.sol\":1748:1769  approvers[msg.sender] */\n              0x00\n                /* \"Campaign.sol\":1758:1768  msg.sender */\n              caller\n                /* \"Campaign.sol\":1748:1769  approvers[msg.sender] */\n              0xffffffffffffffffffffffffffffffffffffffff\n              and\n              0xffffffffffffffffffffffffffffffffffffffff\n              and\n              dup2\n              mstore\n              0x20\n              add\n              swap1\n              dup2\n              mstore\n              0x20\n              add\n              0x00\n              keccak256\n              0x00\n              swap1\n              sload\n              swap1\n              0x0100\n              exp\n              swap1\n              div\n              0xff\n              and\n                /* \"Campaign.sol\":1748:1811  approvers[msg.sender] &&... */\n              dup1\n              iszero\n              tag_97\n              jumpi\n              pop\n                /* \"Campaign.sol\":1786:1789  req */\n              dup1\n                /* \"Campaign.sol\":1786:1799  req.approvals */\n              0x03\n              add\n                /* \"Campaign.sol\":1786:1811  req.approvals[msg.sender] */\n              0x00\n                /* \"Campaign.sol\":1800:1810  msg.sender */\n              caller\n                /* \"Campaign.sol\":1786:1811  req.approvals[msg.sender] */\n              0xffffffffffffffffffffffffffffffffffffffff\n              and\n              0xffffffffffffffffffffffffffffffffffffffff\n              and\n              dup2\n              mstore\n              0x20\n              add\n              swap1\n              dup2\n              mstore\n              0x20\n              add\n              0x00\n              keccak256\n              0x00\n              swap1\n              sload\n              swap1\n              0x0100\n              exp\n              swap1\n              div\n              0xff\n              and\n                /* \"Campaign.sol\":1785:1811  !req.approvals[msg.sender] */\n              iszero\n                /* \"Campaign.sol\":1748:1811  approvers[msg.sender] &&... */\n            tag_97:\n                /* \"Campaign.sol\":1748:1842  approvers[msg.sender] &&... */\n              dup1\n              iszero\n              tag_98\n              jumpi\n              pop\n                /* \"Campaign.sol\":1828:1831  req */\n              dup1\n                /* \"Campaign.sol\":1828:1842  req.isComplete */\n              0x02\n              add\n              0x14\n              swap1\n              sload\n              swap1\n              0x0100\n              exp\n              swap1\n              div\n              0xff\n              and\n                /* \"Campaign.sol\":1827:1842  !req.isComplete */\n              iszero\n                /* \"Campaign.sol\":1748:1842  approvers[msg.sender] &&... */\n            tag_98:\n                /* \"Campaign.sol\":1727:1852  require(... */\n              tag_99\n              jumpi\n              0x00\n              dup1\n              revert\n            tag_99:\n                /* \"Campaign.sol\":1891:1895  true */\n              0x01\n                /* \"Campaign.sol\":1863:1866  req */\n              dup2\n                /* \"Campaign.sol\":1863:1876  req.approvals */\n              0x03\n              add\n                /* \"Campaign.sol\":1863:1888  req.approvals[msg.sender] */\n              0x00\n                /* \"Campaign.sol\":1877:1887  msg.sender */\n              caller\n                /* \"Campaign.sol\":1863:1888  req.approvals[msg.sender] */\n              0xffffffffffffffffffffffffffffffffffffffff\n              and\n              0xffffffffffffffffffffffffffffffffffffffff\n              and\n              dup2\n              mstore\n              0x20\n              add\n              swap1\n              dup2\n              mstore\n              0x20\n              add\n              0x00\n              keccak256\n              0x00\n                /* \"Campaign.sol\":1863:1895  req.approvals[msg.sender] = true */\n              0x0100\n              exp\n              dup2\n              sload\n              dup2\n              0xff\n              mul\n              not\n              and\n              swap1\n              dup4\n              iszero\n              iszero\n              mul\n              or\n              swap1\n              sstore\n              pop\n                /* \"Campaign.sol\":1926:1927  1 */\n              0x01\n                /* \"Campaign.sol\":1905:1908  req */\n              dup2\n                /* \"Campaign.sol\":1905:1922  req.approvalCount */\n              0x04\n              add\n              0x00\n                /* \"Campaign.sol\":1905:1927  req.approvalCount += 1 */\n              dup3\n              dup3\n              sload\n              add\n              swap3\n              pop\n              pop\n              dup2\n              swap1\n              sstore\n              pop\n                /* \"Campaign.sol\":1616:1934  function approveRequest(uint requestIdx) public {... */\n              pop\n              pop\n              jump\t// out\n            tag_87:\n              mload(0x40)\n              dup1\n              0xa0\n              add\n              0x40\n              mstore\n              dup1\n              0x60\n              dup2\n              mstore\n              0x20\n              add\n              0x00\n              dup2\n              mstore\n              0x20\n              add\n              and(0xffffffffffffffffffffffffffffffffffffffff, 0x00)\n              dup2\n              mstore\n              0x20\n              add\n              iszero(iszero(0x00))\n              dup2\n              mstore\n              0x20\n              add\n              0x00\n              dup2\n              mstore\n              pop\n              swap1\n              jump\t// out\n            tag_90:\n              dup3\n              dup1\n              sload\n              0x01\n              dup2\n              0x01\n              and\n              iszero\n              0x0100\n              mul\n              sub\n              and\n              0x02\n              swap1\n              div\n              swap1\n              0x00\n              mstore\n              keccak256(0x00, 0x20)\n              swap1\n              0x1f\n              add\n              0x20\n              swap1\n              div\n              dup2\n              add\n              swap3\n              dup3\n              0x1f\n              lt\n              tag_101\n              jumpi\n              dup1\n              mload\n              not(0xff)\n              and\n              dup4\n              dup1\n              add\n              or\n              dup6\n              sstore\n              jump(tag_100)\n            tag_101:\n              dup3\n              dup1\n              add\n              0x01\n              add\n              dup6\n              sstore\n              dup3\n              iszero\n              tag_100\n              jumpi\n              swap2\n              dup3\n              add\n            tag_102:\n              dup3\n              dup2\n              gt\n              iszero\n              tag_103\n              jumpi\n              dup3\n              mload\n              dup3\n              sstore\n              swap2\n              0x20\n              add\n              swap2\n              swap1\n              0x01\n              add\n              swap1\n              jump(tag_102)\n            tag_103:\n            tag_100:\n              pop\n              swap1\n              pop\n              tag_104\n              swap2\n              swap1\n              tag_105\n              jump\t// in\n            tag_104:\n              pop\n              swap1\n              jump\t// out\n            tag_105:\n            tag_106:\n              dup1\n              dup3\n              gt\n              iszero\n              tag_107\n              jumpi\n              0x00\n              dup2\n              0x00\n              swap1\n              sstore\n              pop\n              0x01\n              add\n              jump(tag_106)\n            tag_107:\n              pop\n              swap1\n              jump\t// out\n\n            auxdata: 0xa2646970667358221220c47efbc2bc1aeabffcda5e802f12ac4c23b0860bdffec952dd619c5bd605c6c664736f6c634300060c0033\n        }\n    }\n\n    auxdata: 0xa2646970667358221220682cfff3eaeec9519e26b69e27f977c324890b0878fa8a4f490e26f16ce1cd3564736f6c634300060c0033\n}\n",
    "bytecode": {
      "linkReferences": {},
      "object": "608060405234801561001057600080fd5b506110a9806100206000396000f3fe608060405234801561001057600080fd5b50600436106100415760003560e01c8063141961bc14610046578063a3303a751461009e578063a6b03633146100cc575b600080fd5b6100726004803603602081101561005c57600080fd5b810190808035906020019092919050505061012b565b604051808273ffffffffffffffffffffffffffffffffffffffff16815260200191505060405180910390f35b6100ca600480360360208110156100b457600080fd5b8101908080359060200190929190505050610167565b005b6100d4610224565b6040518080602001828103825283818151815260200191508051906020019060200280838360005b838110156101175780820151818401526020810190506100fc565b505050509050019250505060405180910390f35b6000818154811061013857fe5b906000526020600020016000915054906101000a900473ffffffffffffffffffffffffffffffffffffffff1681565b60003382604051610177906102b2565b808373ffffffffffffffffffffffffffffffffffffffff16815260200182815260200192505050604051809103906000f0801580156101ba573d6000803e3d6000fd5b5090506000819080600181540180825580915050600190039060005260206000200160009091909190916101000a81548173ffffffffffffffffffffffffffffffffffffffff021916908373ffffffffffffffffffffffffffffffffffffffff1602179055505050565b606060008054806020026020016040519081016040528092919081815260200182805480156102a857602002820191906000526020600020905b8160009054906101000a900473ffffffffffffffffffffffffffffffffffffffff1673ffffffffffffffffffffffffffffffffffffffff168152602001906001019080831161025e575b5050505050905090565b610db4806102c08339019056fe608060405234801561001057600080fd5b50604051610db4380380610db48339818101604052604081101561003357600080fd5b810190808051906020019092919080519060200190929190505050816000806101000a81548173ffffffffffffffffffffffffffffffffffffffff021916908373ffffffffffffffffffffffffffffffffffffffff160217905550806001819055505050610d0e806100a66000396000f3fe6080604052600436106100a75760003560e01c80636345cb08116100645780636345cb081461028857806381d12c58146102b35780638a9cfd551461039b578063aaffadf31461048d578063d7bb99ba146104b8578063d7d1bbdb146104c2576100a7565b806303441006146100ac57806305af11df146100e75780630a144391146101585780633fad1834146101bf5780634051ddac146101ea578063481c6a7514610247575b600080fd5b3480156100b857600080fd5b506100e5600480360360208110156100cf57600080fd5b81019080803590602001909291905050506104fd565b005b3480156100f357600080fd5b506101406004803603604081101561010a57600080fd5b8101908080359060200190929190803573ffffffffffffffffffffffffffffffffffffffff16906020019092919050505061063c565b60405180821515815260200191505060405180910390f35b34801561016457600080fd5b506101a76004803603602081101561017b57600080fd5b81019080803573ffffffffffffffffffffffffffffffffffffffff1690602001909291905050506106b4565b60405180821515815260200191505060405180910390f35b3480156101cb57600080fd5b506101d46106d4565b6040518082815260200191505060405180910390f35b3480156101f657600080fd5b506101ff6106e1565b604051808681526020018581526020018481526020018381526020018273ffffffffffffffffffffffffffffffffffffffff1681526020019550505050505060405180910390f35b34801561025357600080fd5b5061025c610728565b604051808273ffffffffffffffffffffffffffffffffffffffff16815260200191505060405180910390f35b34801561029457600080fd5b5061029d61074c565b6040518082815260200191505060405180910390f35b3480156102bf57600080fd5b506102ec600480360360208110156102d657600080fd5b8101908080359060200190929190505050610752565b60405180806020018681526020018573ffffffffffffffffffffffffffffffffffffffff1681526020018415158152602001838152602001828103825287818151815260200191508051906020019080838360005b8381101561035c578082015181840152602081019050610341565b50505050905090810190601f1680156103895780820380516001836020036101000a031916815260200191505b50965050505050505060405180910390f35b3480156103a757600080fd5b5061048b600480360360608110156103be57600080fd5b81019080803590602001906401000000008111156103db57600080fd5b8201836020820111156103ed57600080fd5b8035906020019184600183028401116401000000008311171561040f57600080fd5b91908080601f016020809104026020016040519081016040528093929190818152602001838380828437600081840152601f19601f82011690508083019250505050505050919291929080359060200190929190803573ffffffffffffffffffffffffffffffffffffffff16906020019092919050505061085a565b005b34801561049957600080fd5b506104a26109c9565b6040518082815260200191505060405180910390f35b6104c06109cf565b005b3480156104ce57600080fd5b506104fb600480360360208110156104e557600080fd5b8101908080359060200190929190505050610a9b565b005b60008054906101000a900473ffffffffffffffffffffffffffffffffffffffff1673ffffffffffffffffffffffffffffffffffffffff163373ffffffffffffffffffffffffffffffffffffffff161461055557600080fd5b60006004828154811061056457fe5b906000526020600020906005020190508060020160149054906101000a900460ff161561059057600080fd5b60026003548161059c57fe5b048160040154116105ac57600080fd5b8060020160009054906101000a900473ffffffffffffffffffffffffffffffffffffffff1673ffffffffffffffffffffffffffffffffffffffff166108fc82600101549081150290604051600060405180830381858888f1935050505015801561061a573d6000803e3d6000fd5b5060018160020160146101000a81548160ff0219169083151502179055505050565b6000806004848154811061064c57fe5b906000526020600020906005020190508060030160008473ffffffffffffffffffffffffffffffffffffffff1673ffffffffffffffffffffffffffffffffffffffff16815260200190815260200160002060009054906101000a900460ff1691505092915050565b60026020528060005260406000206000915054906101000a900460ff1681565b6000600480549050905090565b60008060008060006001544760048054905060035460008054906101000a900473ffffffffffffffffffffffffffffffffffffffff16945094509450945094509091929394565b60008054906101000a900473ffffffffffffffffffffffffffffffffffffffff1681565b60035481565b6004818154811061075f57fe5b9060005260206000209060050201600091509050806000018054600181600116156101000203166002900480601f01602080910402602001604051908101604052809291908181526020018280546001816001161561010002031660029004801561080b5780601f106107e05761010080835404028352916020019161080b565b820191906000526020600020905b8154815290600101906020018083116107ee57829003601f168201915b5050505050908060010154908060020160009054906101000a900473ffffffffffffffffffffffffffffffffffffffff16908060020160149054906101000a900460ff16908060040154905085565b60008054906101000a900473ffffffffffffffffffffffffffffffffffffffff1673ffffffffffffffffffffffffffffffffffffffff163373ffffffffffffffffffffffffffffffffffffffff16146108b257600080fd5b6108ba610bf4565b6040518060a001604052808581526020018481526020018373ffffffffffffffffffffffffffffffffffffffff1681526020016000151581526020016000815250905060048190806001815401808255809150506001900390600052602060002090600502016000909190919091506000820151816000019080519060200190610945929190610c3b565b506020820151816001015560408201518160020160006101000a81548173ffffffffffffffffffffffffffffffffffffffff021916908373ffffffffffffffffffffffffffffffffffffffff16021790555060608201518160020160146101000a81548160ff02191690831515021790555060808201518160040155505050505050565b60015481565b6001543410156109de57600080fd5b600260003373ffffffffffffffffffffffffffffffffffffffff1673ffffffffffffffffffffffffffffffffffffffff16815260200190815260200160002060009054906101000a900460ff16610a99576001600260003373ffffffffffffffffffffffffffffffffffffffff1673ffffffffffffffffffffffffffffffffffffffff16815260200190815260200160002060006101000a81548160ff02191690831515021790555060016003600082825401925050819055505b565b600060048281548110610aaa57fe5b90600052602060002090600502019050600260003373ffffffffffffffffffffffffffffffffffffffff1673ffffffffffffffffffffffffffffffffffffffff16815260200190815260200160002060009054906101000a900460ff168015610b5f57508060030160003373ffffffffffffffffffffffffffffffffffffffff1673ffffffffffffffffffffffffffffffffffffffff16815260200190815260200160002060009054906101000a900460ff16155b8015610b7a57508060020160149054906101000a900460ff16155b610b8357600080fd5b60018160030160003373ffffffffffffffffffffffffffffffffffffffff1673ffffffffffffffffffffffffffffffffffffffff16815260200190815260200160002060006101000a81548160ff021916908315150217905550600181600401600082825401925050819055505050565b6040518060a001604052806060815260200160008152602001600073ffffffffffffffffffffffffffffffffffffffff168152602001600015158152602001600081525090565b828054600181600116156101000203166002900490600052602060002090601f016020900481019282601f10610c7c57805160ff1916838001178555610caa565b82800160010185558215610caa579182015b82811115610ca9578251825591602001919060010190610c8e565b5b509050610cb79190610cbb565b5090565b5b80821115610cd4576000816000905550600101610cbc565b509056fea2646970667358221220c47efbc2bc1aeabffcda5e802f12ac4c23b0860bdffec952dd619c5bd605c6c664736f6c634300060c0033a2646970667358221220682cfff3eaeec9519e26b69e27f977c324890b0878fa8a4f490e26f16ce1cd3564736f6c634300060c0033",
      "opcodes": "PUSH1 0x80 PUSH1 0x40 MSTORE CALLVALUE DUP1 ISZERO PUSH2 0x10 JUMPI PUSH1 0x0 DUP1 REVERT JUMPDEST POP PUSH2 0x10A9 DUP1 PUSH2 0x20 PUSH1 0x0 CODECOPY PUSH1 0x0 RETURN INVALID PUSH1 0x80 PUSH1 0x40 MSTORE CALLVALUE DUP1 ISZERO PUSH2 0x10 JUMPI PUSH1 0x0 DUP1 REVERT JUMPDEST POP PUSH1 0x4 CALLDATASIZE LT PUSH2 0x41 JUMPI PUSH1 0x0 CALLDATALOAD PUSH1 0xE0 SHR DUP1 PUSH4 0x141961BC EQ PUSH2 0x46 JUMPI DUP1 PUSH4 0xA3303A75 EQ PUSH2 0x9E JUMPI DUP1 PUSH4 0xA6B03633 EQ PUSH2 0xCC JUMPI JUMPDEST PUSH1 0x0 DUP1 REVERT JUMPDEST PUSH2 0x72 PUSH1 0x4 DUP1 CALLDATASIZE SUB PUSH1 0x20 DUP2 LT ISZERO PUSH2 0x5C JUMPI PUSH1 0x0 DUP1 REVERT JUMPDEST DUP2 ADD SWAP1 DUP1 DUP1 CALLDATALOAD SWAP1 PUSH1 0x20 ADD SWAP1 SWAP3 SWAP2 SWAP1 POP POP POP PUSH2 0x12B JUMP JUMPDEST PUSH1 0x40 MLOAD DUP1 DUP3 PUSH20 0xFFFFFFFFFFFFFFFFFFFFFFFFFFFFFFFFFFFFFFFF AND DUP2 MSTORE PUSH1 0x20 ADD SWAP2 POP POP PUSH1 0x40 MLOAD DUP1 SWAP2 SUB SWAP1 RETURN JUMPDEST PUSH2 0xCA PUSH1 0x4 DUP1 CALLDATASIZE SUB PUSH1 0x20 DUP2 LT ISZERO PUSH2 0xB4 JUMPI PUSH1 0x0 DUP1 REVERT JUMPDEST DUP2 ADD SWAP1 DUP1 DUP1 CALLDATALOAD SWAP1 PUSH1 0x20 ADD SWAP1 SWAP3 SWAP2 SWAP1 POP POP POP PUSH2 0x167 JUMP JUMPDEST STOP JUMPDEST PUSH2 0xD4 PUSH2 0x224 JUMP JUMPDEST PUSH1 0x40 MLOAD DUP1 DUP1 PUSH1 0x20 ADD DUP3 DUP2 SUB DUP3 MSTORE DUP4 DUP2 DUP2 MLOAD DUP2 MSTORE PUSH1 0x20 ADD SWAP2 POP DUP1 MLOAD SWAP1 PUSH1 0x20 ADD SWAP1 PUSH1 0x20 MUL DUP1 DUP4 DUP4 PUSH1 0x0 JUMPDEST DUP4 DUP2 LT ISZERO PUSH2 0x117 JUMPI DUP1 DUP3 ADD MLOAD DUP2 DUP5 ADD MSTORE PUSH1 0x20 DUP2 ADD SWAP1 POP PUSH2 0xFC JUMP JUMPDEST POP POP POP POP SWAP1 POP ADD SWAP3 POP POP POP PUSH1 0x40 MLOAD DUP1 SWAP2 SUB SWAP1 RETURN JUMPDEST PUSH1 0x0 DUP2 DUP2 SLOAD DUP2 LT PUSH2 0x138 JUMPI INVALID JUMPDEST SWAP1 PUSH1 0x0 MSTORE PUSH1 0x20 PUSH1 0x0 KECCAK256 ADD PUSH1 0x0 SWAP2 POP SLOAD SWAP1 PUSH2 0x100 EXP SWAP1 DIV PUSH20 0xFFFFFFFFFFFFFFFFFFFFFFFFFFFFFFFFFFFFFFFF AND DUP2 JUMP JUMPDEST PUSH1 0x0 CALLER DUP3 PUSH1 0x40 MLOAD PUSH2 0x177 SWAP1 PUSH2 0x2B2 JUMP JUMPDEST DUP1 DUP4 PUSH20 0xFFFFFFFFFFFFFFFFFFFFFFFFFFFFFFFFFFFFFFFF AND DUP2 MSTORE PUSH1 0x20 ADD DUP3 DUP2 MSTORE PUSH1 0x20 ADD SWAP3 POP POP POP PUSH1 0x40 MLOAD DUP1 SWAP2 SUB SWAP1 PUSH1 0x0 CREATE DUP1 ISZERO DUP1 ISZERO PUSH2 0x1BA JUMPI RETURNDATASIZE PUSH1 0x0 DUP1 RETURNDATACOPY RETURNDATASIZE PUSH1 0x0 REVERT JUMPDEST POP SWAP1 POP PUSH1 0x0 DUP2 SWAP1 DUP1 PUSH1 0x1 DUP2 SLOAD ADD DUP1 DUP3 SSTORE DUP1 SWAP2 POP POP PUSH1 0x1 SWAP1 SUB SWAP1 PUSH1 0x0 MSTORE PUSH1 0x20 PUSH1 0x0 KECCAK256 ADD PUSH1 0x0 SWAP1 SWAP2 SWAP1 SWAP2 SWAP1 SWAP2 PUSH2 0x100 EXP DUP2 SLOAD DUP2 PUSH20 0xFFFFFFFFFFFFFFFFFFFFFFFFFFFFFFFFFFFFFFFF MUL NOT AND SWAP1 DUP4 PUSH20 0xFFFFFFFFFFFFFFFFFFFFFFFFFFFFFFFFFFFFFFFF AND MUL OR SWAP1 SSTORE POP POP POP JUMP JUMPDEST PUSH1 0x60 PUSH1 0x0 DUP1 SLOAD DUP1 PUSH1 0x20 MUL PUSH1 0x20 ADD PUSH1 0x40 MLOAD SWAP1 DUP2 ADD PUSH1 0x40 MSTORE DUP1 SWAP3 SWAP2 SWAP1 DUP2 DUP2 MSTORE PUSH1 0x20 ADD DUP3 DUP1 SLOAD DUP1 ISZERO PUSH2 0x2A8 JUMPI PUSH1 0x20 MUL DUP3 ADD SWAP2 SWAP1 PUSH1 0x0 MSTORE PUSH1 0x20 PUSH1 0x0 KECCAK256 SWAP1 JUMPDEST DUP2 PUSH1 0x0 SWAP1 SLOAD SWAP1 PUSH2 0x100 EXP SWAP1 DIV PUSH20 0xFFFFFFFFFFFFFFFFFFFFFFFFFFFFFFFFFFFFFFFF AND PUSH20 0xFFFFFFFFFFFFFFFFFFFFFFFFFFFFFFFFFFFFFFFF AND DUP2 MSTORE PUSH1 0x20 ADD SWAP1 PUSH1 0x1 ADD SWAP1 DUP1 DUP4 GT PUSH2 0x25E JUMPI JUMPDEST POP POP POP POP POP SWAP1 POP SWAP1 JUMP JUMPDEST PUSH2 0xDB4 DUP1 PUSH2 0x2C0 DUP4 CODECOPY ADD SWAP1 JUMP INVALID PUSH1 0x80 PUSH1 0x40 MSTORE CALLVALUE DUP1 ISZERO PUSH2 0x10 JUMPI PUSH1 0x0 DUP1 REVERT JUMPDEST POP PUSH1 0x40 MLOAD PUSH2 0xDB4 CODESIZE SUB DUP1 PUSH2 0xDB4 DUP4 CODECOPY DUP2 DUP2 ADD PUSH1 0x40 MSTORE PUSH1 0x40 DUP2 LT ISZERO PUSH2 0x33 JUMPI PUSH1 0x0 DUP1 REVERT JUMPDEST DUP2 ADD SWAP1 DUP1 DUP1 MLOAD SWAP1 PUSH1 0x20 ADD SWAP1 SWAP3 SWAP2 SWAP1 DUP1 MLOAD SWAP1 PUSH1 0x20 ADD SWAP1 SWAP3 SWAP2 SWAP1 POP POP POP DUP2 PUSH1 0x0 DUP1 PUSH2 0x100 EXP DUP2 SLOAD DUP2 PUSH20 0xFFFFFFFFFFFFFFFFFFFFFFFFFFFFFFFFFFFFFFFF MUL NOT AND SWAP1 DUP4 PUSH20 0xFFFFFFFFFFFFFFFFFFFFFFFFFFFFFFFFFFFFFFFF AND MUL OR SWAP1 SSTORE POP DUP1 PUSH1 0x1 DUP2 SWAP1 SSTORE POP POP POP PUSH2 0xD0E DUP1 PUSH2 0xA6 PUSH1 0x0 CODECOPY PUSH1 0x0 RETURN INVALID PUSH1 0x80 PUSH1 0x40 MSTORE PUSH1 0x4 CALLDATASIZE LT PUSH2 0xA7 JUMPI PUSH1 0x0 CALLDATALOAD PUSH1 0xE0 SHR DUP1 PUSH4 0x6345CB08 GT PUSH2 0x64 JUMPI DUP1 PUSH4 0x6345CB08 EQ PUSH2 0x288 JUMPI DUP1 PUSH4 0x81D12C58 EQ PUSH2 0x2B3 JUMPI DUP1 PUSH4 0x8A9CFD55 EQ PUSH2 0x39B JUMPI DUP1 PUSH4 0xAAFFADF3 EQ PUSH2 0x48D JUMPI DUP1 PUSH4 0xD7BB99BA EQ PUSH2 0x4B8 JUMPI DUP1 PUSH4 0xD7D1BBDB EQ PUSH2 0x4C2 JUMPI PUSH2 0xA7 JUMP JUMPDEST DUP1 PUSH4 0x3441006 EQ PUSH2 0xAC JUMPI DUP1 PUSH4 0x5AF11DF EQ PUSH2 0xE7 JUMPI DUP1 PUSH4 0xA144391 EQ PUSH2 0x158 JUMPI DUP1 PUSH4 0x3FAD1834 EQ PUSH2 0x1BF JUMPI DUP1 PUSH4 0x4051DDAC EQ PUSH2 0x1EA JUMPI DUP1 PUSH4 0x481C6A75 EQ PUSH2 0x247 JUMPI JUMPDEST PUSH1 0x0 DUP1 REVERT JUMPDEST CALLVALUE DUP1 ISZERO PUSH2 0xB8 JUMPI PUSH1 0x0 DUP1 REVERT JUMPDEST POP PUSH2 0xE5 PUSH1 0x4 DUP1 CALLDATASIZE SUB PUSH1 0x20 DUP2 LT ISZERO PUSH2 0xCF JUMPI PUSH1 0x0 DUP1 REVERT JUMPDEST DUP2 ADD SWAP1 DUP1 DUP1 CALLDATALOAD SWAP1 PUSH1 0x20 ADD SWAP1 SWAP3 SWAP2 SWAP1 POP POP POP PUSH2 0x4FD JUMP JUMPDEST STOP JUMPDEST CALLVALUE DUP1 ISZERO PUSH2 0xF3 JUMPI PUSH1 0x0 DUP1 REVERT JUMPDEST POP PUSH2 0x140 PUSH1 0x4 DUP1 CALLDATASIZE SUB PUSH1 0x40 DUP2 LT ISZERO PUSH2 0x10A JUMPI PUSH1 0x0 DUP1 REVERT JUMPDEST DUP2 ADD SWAP1 DUP1 DUP1 CALLDATALOAD SWAP1 PUSH1 0x20 ADD SWAP1 SWAP3 SWAP2 SWAP1 DUP1 CALLDATALOAD PUSH20 0xFFFFFFFFFFFFFFFFFFFFFFFFFFFFFFFFFFFFFFFF AND SWAP1 PUSH1 0x20 ADD SWAP1 SWAP3 SWAP2 SWAP1 POP POP POP PUSH2 0x63C JUMP JUMPDEST PUSH1 0x40 MLOAD DUP1 DUP3 ISZERO ISZERO DUP2 MSTORE PUSH1 0x20 ADD SWAP2 POP POP PUSH1 0x40 MLOAD DUP1 SWAP2 SUB SWAP1 RETURN JUMPDEST CALLVALUE DUP1 ISZERO PUSH2 0x164 JUMPI PUSH1 0x0 DUP1 REVERT JUMPDEST POP PUSH2 0x1A7 PUSH1 0x4 DUP1 CALLDATASIZE SUB PUSH1 0x20 DUP2 LT ISZERO PUSH2 0x17B JUMPI PUSH1 0x0 DUP1 REVERT JUMPDEST DUP2 ADD SWAP1 DUP1 DUP1 CALLDATALOAD PUSH20 0xFFFFFFFFFFFFFFFFFFFFFFFFFFFFFFFFFFFFFFFF AND SWAP1 PUSH1 0x20 ADD SWAP1 SWAP3 SWAP2 SWAP1 POP POP POP PUSH2 0x6B4 JUMP JUMPDEST PUSH1 0x40 MLOAD DUP1 DUP3 ISZERO ISZERO DUP2 MSTORE PUSH1 0x20 ADD SWAP2 POP POP PUSH1 0x40 MLOAD DUP1 SWAP2 SUB SWAP1 RETURN JUMPDEST CALLVALUE DUP1 ISZERO PUSH2 0x1CB JUMPI PUSH1 0x0 DUP1 REVERT JUMPDEST POP PUSH2 0x1D4 PUSH2 0x6D4 JUMP JUMPDEST PUSH1 0x40 MLOAD DUP1 DUP3 DUP2 MSTORE PUSH1 0x20 ADD SWAP2 POP POP PUSH1 0x40 MLOAD DUP1 SWAP2 SUB SWAP1 RETURN JUMPDEST CALLVALUE DUP1 ISZERO PUSH2 0x1F6 JUMPI PUSH1 0x0 DUP1 REVERT JUMPDEST POP PUSH2 0x1FF PUSH2 0x6E1 JUMP JUMPDEST PUSH1 0x40 MLOAD DUP1 DUP7 DUP2 MSTORE PUSH1 0x20 ADD DUP6 DUP2 MSTORE PUSH1 0x20 ADD DUP5 DUP2 MSTORE PUSH1 0x20 ADD DUP4 DUP2 MSTORE PUSH1 0x20 ADD DUP3 PUSH20 0xFFFFFFFFFFFFFFFFFFFFFFFFFFFFFFFFFFFFFFFF AND DUP2 MSTORE PUSH1 0x20 ADD SWAP6 POP POP POP POP POP POP PUSH1 0x40 MLOAD DUP1 SWAP2 SUB SWAP1 RETURN JUMPDEST CALLVALUE DUP1 ISZERO PUSH2 0x253 JUMPI PUSH1 0x0 DUP1 REVERT JUMPDEST POP PUSH2 0x25C PUSH2 0x728 JUMP JUMPDEST PUSH1 0x40 MLOAD DUP1 DUP3 PUSH20 0xFFFFFFFFFFFFFFFFFFFFFFFFFFFFFFFFFFFFFFFF AND DUP2 MSTORE PUSH1 0x20 ADD SWAP2 POP POP PUSH1 0x40 MLOAD DUP1 SWAP2 SUB SWAP1 RETURN JUMPDEST CALLVALUE DUP1 ISZERO PUSH2 0x294 JUMPI PUSH1 0x0 DUP1 REVERT JUMPDEST POP PUSH2 0x29D PUSH2 0x74C JUMP JUMPDEST PUSH1 0x40 MLOAD DUP1 DUP3 DUP2 MSTORE PUSH1 0x20 ADD SWAP2 POP POP PUSH1 0x40 MLOAD DUP1 SWAP2 SUB SWAP1 RETURN JUMPDEST CALLVALUE DUP1 ISZERO PUSH2 0x2BF JUMPI PUSH1 0x0 DUP1 REVERT JUMPDEST POP PUSH2 0x2EC PUSH1 0x4 DUP1 CALLDATASIZE SUB PUSH1 0x20 DUP2 LT ISZERO PUSH2 0x2D6 JUMPI PUSH1 0x0 DUP1 REVERT JUMPDEST DUP2 ADD SWAP1 DUP1 DUP1 CALLDATALOAD SWAP1 PUSH1 0x20 ADD SWAP1 SWAP3 SWAP2 SWAP1 POP POP POP PUSH2 0x752 JUMP JUMPDEST PUSH1 0x40 MLOAD DUP1 DUP1 PUSH1 0x20 ADD DUP7 DUP2 MSTORE PUSH1 0x20 ADD DUP6 PUSH20 0xFFFFFFFFFFFFFFFFFFFFFFFFFFFFFFFFFFFFFFFF AND DUP2 MSTORE PUSH1 0x20 ADD DUP5 ISZERO ISZERO DUP2 MSTORE PUSH1 0x20 ADD DUP4 DUP2 MSTORE PUSH1 0x20 ADD DUP3 DUP2 SUB DUP3 MSTORE DUP8 DUP2 DUP2 MLOAD DUP2 MSTORE PUSH1 0x20 ADD SWAP2 POP DUP1 MLOAD SWAP1 PUSH1 0x20 ADD SWAP1 DUP1 DUP4 DUP4 PUSH1 0x0 JUMPDEST DUP4 DUP2 LT ISZERO PUSH2 0x35C JUMPI DUP1 DUP3 ADD MLOAD DUP2 DUP5 ADD MSTORE PUSH1 0x20 DUP2 ADD SWAP1 POP PUSH2 0x341 JUMP JUMPDEST POP POP POP POP SWAP1 POP SWAP1 DUP2 ADD SWAP1 PUSH1 0x1F AND DUP1 ISZERO PUSH2 0x389 JUMPI DUP1 DUP3 SUB DUP1 MLOAD PUSH1 0x1 DUP4 PUSH1 0x20 SUB PUSH2 0x100 EXP SUB NOT AND DUP2 MSTORE PUSH1 0x20 ADD SWAP2 POP JUMPDEST POP SWAP7 POP POP POP POP POP POP POP PUSH1 0x40 MLOAD DUP1 SWAP2 SUB SWAP1 RETURN JUMPDEST CALLVALUE DUP1 ISZERO PUSH2 0x3A7 JUMPI PUSH1 0x0 DUP1 REVERT JUMPDEST POP PUSH2 0x48B PUSH1 0x4 DUP1 CALLDATASIZE SUB PUSH1 0x60 DUP2 LT ISZERO PUSH2 0x3BE JUMPI PUSH1 0x0 DUP1 REVERT JUMPDEST DUP2 ADD SWAP1 DUP1 DUP1 CALLDATALOAD SWAP1 PUSH1 0x20 ADD SWAP1 PUSH5 0x100000000 DUP2 GT ISZERO PUSH2 0x3DB JUMPI PUSH1 0x0 DUP1 REVERT JUMPDEST DUP3 ADD DUP4 PUSH1 0x20 DUP3 ADD GT ISZERO PUSH2 0x3ED JUMPI PUSH1 0x0 DUP1 REVERT JUMPDEST DUP1 CALLDATALOAD SWAP1 PUSH1 0x20 ADD SWAP2 DUP5 PUSH1 0x1 DUP4 MUL DUP5 ADD GT PUSH5 0x100000000 DUP4 GT OR ISZERO PUSH2 0x40F JUMPI PUSH1 0x0 DUP1 REVERT JUMPDEST SWAP2 SWAP1 DUP1 DUP1 PUSH1 0x1F ADD PUSH1 0x20 DUP1 SWAP2 DIV MUL PUSH1 0x20 ADD PUSH1 0x40 MLOAD SWAP1 DUP2 ADD PUSH1 0x40 MSTORE DUP1 SWAP4 SWAP3 SWAP2 SWAP1 DUP2 DUP2 MSTORE PUSH1 0x20 ADD DUP4 DUP4 DUP1 DUP3 DUP5 CALLDATACOPY PUSH1 0x0 DUP2 DUP5 ADD MSTORE PUSH1 0x1F NOT PUSH1 0x1F DUP3 ADD AND SWAP1 POP DUP1 DUP4 ADD SWAP3 POP POP POP POP POP POP POP SWAP2 SWAP3 SWAP2 SWAP3 SWAP1 DUP1 CALLDATALOAD SWAP1 PUSH1 0x20 ADD SWAP1 SWAP3 SWAP2 SWAP1 DUP1 CALLDATALOAD PUSH20 0xFFFFFFFFFFFFFFFFFFFFFFFFFFFFFFFFFFFFFFFF AND SWAP1 PUSH1 0x20 ADD SWAP1 SWAP3 SWAP2 SWAP1 POP POP POP PUSH2 0x85A JUMP JUMPDEST STOP JUMPDEST CALLVALUE DUP1 ISZERO PUSH2 0x499 JUMPI PUSH1 0x0 DUP1 REVERT JUMPDEST POP PUSH2 0x4A2 PUSH2 0x9C9 JUMP JUMPDEST PUSH1 0x40 MLOAD DUP1 DUP3 DUP2 MSTORE PUSH1 0x20 ADD SWAP2 POP POP PUSH1 0x40 MLOAD DUP1 SWAP2 SUB SWAP1 RETURN JUMPDEST PUSH2 0x4C0 PUSH2 0x9CF JUMP JUMPDEST STOP JUMPDEST CALLVALUE DUP1 ISZERO PUSH2 0x4CE JUMPI PUSH1 0x0 DUP1 REVERT JUMPDEST POP PUSH2 0x4FB PUSH1 0x4 DUP1 CALLDATASIZE SUB PUSH1 0x20 DUP2 LT ISZERO PUSH2 0x4E5 JUMPI PUSH1 0x0 DUP1 REVERT JUMPDEST DUP2 ADD SWAP1 DUP1 DUP1 CALLDATALOAD SWAP1 PUSH1 0x20 ADD SWAP1 SWAP3 SWAP2 SWAP1 POP POP POP PUSH2 0xA9B JUMP JUMPDEST STOP JUMPDEST PUSH1 0x0 DUP1 SLOAD SWAP1 PUSH2 0x100 EXP SWAP1 DIV PUSH20 0xFFFFFFFFFFFFFFFFFFFFFFFFFFFFFFFFFFFFFFFF AND PUSH20 0xFFFFFFFFFFFFFFFFFFFFFFFFFFFFFFFFFFFFFFFF AND CALLER PUSH20 0xFFFFFFFFFFFFFFFFFFFFFFFFFFFFFFFFFFFFFFFF AND EQ PUSH2 0x555 JUMPI PUSH1 0x0 DUP1 REVERT JUMPDEST PUSH1 0x0 PUSH1 0x4 DUP3 DUP2 SLOAD DUP2 LT PUSH2 0x564 JUMPI INVALID JUMPDEST SWAP1 PUSH1 0x0 MSTORE PUSH1 0x20 PUSH1 0x0 KECCAK256 SWAP1 PUSH1 0x5 MUL ADD SWAP1 POP DUP1 PUSH1 0x2 ADD PUSH1 0x14 SWAP1 SLOAD SWAP1 PUSH2 0x100 EXP SWAP1 DIV PUSH1 0xFF AND ISZERO PUSH2 0x590 JUMPI PUSH1 0x0 DUP1 REVERT JUMPDEST PUSH1 0x2 PUSH1 0x3 SLOAD DUP2 PUSH2 0x59C JUMPI INVALID JUMPDEST DIV DUP2 PUSH1 0x4 ADD SLOAD GT PUSH2 0x5AC JUMPI PUSH1 0x0 DUP1 REVERT JUMPDEST DUP1 PUSH1 0x2 ADD PUSH1 0x0 SWAP1 SLOAD SWAP1 PUSH2 0x100 EXP SWAP1 DIV PUSH20 0xFFFFFFFFFFFFFFFFFFFFFFFFFFFFFFFFFFFFFFFF AND PUSH20 0xFFFFFFFFFFFFFFFFFFFFFFFFFFFFFFFFFFFFFFFF AND PUSH2 0x8FC DUP3 PUSH1 0x1 ADD SLOAD SWAP1 DUP2 ISZERO MUL SWAP1 PUSH1 0x40 MLOAD PUSH1 0x0 PUSH1 0x40 MLOAD DUP1 DUP4 SUB DUP2 DUP6 DUP9 DUP9 CALL SWAP4 POP POP POP POP ISZERO DUP1 ISZERO PUSH2 0x61A JUMPI RETURNDATASIZE PUSH1 0x0 DUP1 RETURNDATACOPY RETURNDATASIZE PUSH1 0x0 REVERT JUMPDEST POP PUSH1 0x1 DUP2 PUSH1 0x2 ADD PUSH1 0x14 PUSH2 0x100 EXP DUP2 SLOAD DUP2 PUSH1 0xFF MUL NOT AND SWAP1 DUP4 ISZERO ISZERO MUL OR SWAP1 SSTORE POP POP POP JUMP JUMPDEST PUSH1 0x0 DUP1 PUSH1 0x4 DUP5 DUP2 SLOAD DUP2 LT PUSH2 0x64C JUMPI INVALID JUMPDEST SWAP1 PUSH1 0x0 MSTORE PUSH1 0x20 PUSH1 0x0 KECCAK256 SWAP1 PUSH1 0x5 MUL ADD SWAP1 POP DUP1 PUSH1 0x3 ADD PUSH1 0x0 DUP5 PUSH20 0xFFFFFFFFFFFFFFFFFFFFFFFFFFFFFFFFFFFFFFFF AND PUSH20 0xFFFFFFFFFFFFFFFFFFFFFFFFFFFFFFFFFFFFFFFF AND DUP2 MSTORE PUSH1 0x20 ADD SWAP1 DUP2 MSTORE PUSH1 0x20 ADD PUSH1 0x0 KECCAK256 PUSH1 0x0 SWAP1 SLOAD SWAP1 PUSH2 0x100 EXP SWAP1 DIV PUSH1 0xFF AND SWAP2 POP POP SWAP3 SWAP2 POP POP JUMP JUMPDEST PUSH1 0x2 PUSH1 0x20 MSTORE DUP1 PUSH1 0x0 MSTORE PUSH1 0x40 PUSH1 0x0 KECCAK256 PUSH1 0x0 SWAP2 POP SLOAD SWAP1 PUSH2 0x100 EXP SWAP1 DIV PUSH1 0xFF AND DUP2 JUMP JUMPDEST PUSH1 0x0 PUSH1 0x4 DUP1 SLOAD SWAP1 POP SWAP1 POP SWAP1 JUMP JUMPDEST PUSH1 0x0 DUP1 PUSH1 0x0 DUP1 PUSH1 0x0 PUSH1 0x1 SLOAD SELFBALANCE PUSH1 0x4 DUP1 SLOAD SWAP1 POP PUSH1 0x3 SLOAD PUSH1 0x0 DUP1 SLOAD SWAP1 PUSH2 0x100 EXP SWAP1 DIV PUSH20 0xFFFFFFFFFFFFFFFFFFFFFFFFFFFFFFFFFFFFFFFF AND SWAP5 POP SWAP5 POP SWAP5 POP SWAP5 POP SWAP5 POP SWAP1 SWAP2 SWAP3 SWAP4 SWAP5 JUMP JUMPDEST PUSH1 0x0 DUP1 SLOAD SWAP1 PUSH2 0x100 EXP SWAP1 DIV PUSH20 0xFFFFFFFFFFFFFFFFFFFFFFFFFFFFFFFFFFFFFFFF AND DUP2 JUMP JUMPDEST PUSH1 0x3 SLOAD DUP2 JUMP JUMPDEST PUSH1 0x4 DUP2 DUP2 SLOAD DUP2 LT PUSH2 0x75F JUMPI INVALID JUMPDEST SWAP1 PUSH1 0x0 MSTORE PUSH1 0x20 PUSH1 0x0 KECCAK256 SWAP1 PUSH1 0x5 MUL ADD PUSH1 0x0 SWAP2 POP SWAP1 POP DUP1 PUSH1 0x0 ADD DUP1 SLOAD PUSH1 0x1 DUP2 PUSH1 0x1 AND ISZERO PUSH2 0x100 MUL SUB AND PUSH1 0x2 SWAP1 DIV DUP1 PUSH1 0x1F ADD PUSH1 0x20 DUP1 SWAP2 DIV MUL PUSH1 0x20 ADD PUSH1 0x40 MLOAD SWAP1 DUP2 ADD PUSH1 0x40 MSTORE DUP1 SWAP3 SWAP2 SWAP1 DUP2 DUP2 MSTORE PUSH1 0x20 ADD DUP3 DUP1 SLOAD PUSH1 0x1 DUP2 PUSH1 0x1 AND ISZERO PUSH2 0x100 MUL SUB AND PUSH1 0x2 SWAP1 DIV DUP1 ISZERO PUSH2 0x80B JUMPI DUP1 PUSH1 0x1F LT PUSH2 0x7E0 JUMPI PUSH2 0x100 DUP1 DUP4 SLOAD DIV MUL DUP4 MSTORE SWAP2 PUSH1 0x20 ADD SWAP2 PUSH2 0x80B JUMP JUMPDEST DUP3 ADD SWAP2 SWAP1 PUSH1 0x0 MSTORE PUSH1 0x20 PUSH1 0x0 KECCAK256 SWAP1 JUMPDEST DUP2 SLOAD DUP2 MSTORE SWAP1 PUSH1 0x1 ADD SWAP1 PUSH1 0x20 ADD DUP1 DUP4 GT PUSH2 0x7EE JUMPI DUP3 SWAP1 SUB PUSH1 0x1F AND DUP3 ADD SWAP2 JUMPDEST POP POP POP POP POP SWAP1 DUP1 PUSH1 0x1 ADD SLOAD SWAP1 DUP1 PUSH1 0x2 ADD PUSH1 0x0 SWAP1 SLOAD SWAP1 PUSH2 0x100 EXP SWAP1 DIV PUSH20 0xFFFFFFFFFFFFFFFFFFFFFFFFFFFFFFFFFFFFFFFF AND SWAP1 DUP1 PUSH1 0x2 ADD PUSH1 0x14 SWAP1 SLOAD SWAP1 PUSH2 0x100 EXP SWAP1 DIV PUSH1 0xFF AND SWAP1 DUP1 PUSH1 0x4 ADD SLOAD SWAP1 POP DUP6 JUMP JUMPDEST PUSH1 0x0 DUP1 SLOAD SWAP1 PUSH2 0x100 EXP SWAP1 DIV PUSH20 0xFFFFFFFFFFFFFFFFFFFFFFFFFFFFFFFFFFFFFFFF AND PUSH20 0xFFFFFFFFFFFFFFFFFFFFFFFFFFFFFFFFFFFFFFFF AND CALLER PUSH20 0xFFFFFFFFFFFFFFFFFFFFFFFFFFFFFFFFFFFFFFFF AND EQ PUSH2 0x8B2 JUMPI PUSH1 0x0 DUP1 REVERT JUMPDEST PUSH2 0x8BA PUSH2 0xBF4 JUMP JUMPDEST PUSH1 0x40 MLOAD DUP1 PUSH1 0xA0 ADD PUSH1 0x40 MSTORE DUP1 DUP6 DUP2 MSTORE PUSH1 0x20 ADD DUP5 DUP2 MSTORE PUSH1 0x20 ADD DUP4 PUSH20 0xFFFFFFFFFFFFFFFFFFFFFFFFFFFFFFFFFFFFFFFF AND DUP2 MSTORE PUSH1 0x20 ADD PUSH1 0x0 ISZERO ISZERO DUP2 MSTORE PUSH1 0x20 ADD PUSH1 0x0 DUP2 MSTORE POP SWAP1 POP PUSH1 0x4 DUP2 SWAP1 DUP1 PUSH1 0x1 DUP2 SLOAD ADD DUP1 DUP3 SSTORE DUP1 SWAP2 POP POP PUSH1 0x1 SWAP1 SUB SWAP1 PUSH1 0x0 MSTORE PUSH1 0x20 PUSH1 0x0 KECCAK256 SWAP1 PUSH1 0x5 MUL ADD PUSH1 0x0 SWAP1 SWAP2 SWAP1 SWAP2 SWAP1 SWAP2 POP PUSH1 0x0 DUP3 ADD MLOAD DUP2 PUSH1 0x0 ADD SWAP1 DUP1 MLOAD SWAP1 PUSH1 0x20 ADD SWAP1 PUSH2 0x945 SWAP3 SWAP2 SWAP1 PUSH2 0xC3B JUMP JUMPDEST POP PUSH1 0x20 DUP3 ADD MLOAD DUP2 PUSH1 0x1 ADD SSTORE PUSH1 0x40 DUP3 ADD MLOAD DUP2 PUSH1 0x2 ADD PUSH1 0x0 PUSH2 0x100 EXP DUP2 SLOAD DUP2 PUSH20 0xFFFFFFFFFFFFFFFFFFFFFFFFFFFFFFFFFFFFFFFF MUL NOT AND SWAP1 DUP4 PUSH20 0xFFFFFFFFFFFFFFFFFFFFFFFFFFFFFFFFFFFFFFFF AND MUL OR SWAP1 SSTORE POP PUSH1 0x60 DUP3 ADD MLOAD DUP2 PUSH1 0x2 ADD PUSH1 0x14 PUSH2 0x100 EXP DUP2 SLOAD DUP2 PUSH1 0xFF MUL NOT AND SWAP1 DUP4 ISZERO ISZERO MUL OR SWAP1 SSTORE POP PUSH1 0x80 DUP3 ADD MLOAD DUP2 PUSH1 0x4 ADD SSTORE POP POP POP POP POP POP JUMP JUMPDEST PUSH1 0x1 SLOAD DUP2 JUMP JUMPDEST PUSH1 0x1 SLOAD CALLVALUE LT ISZERO PUSH2 0x9DE JUMPI PUSH1 0x0 DUP1 REVERT JUMPDEST PUSH1 0x2 PUSH1 0x0 CALLER PUSH20 0xFFFFFFFFFFFFFFFFFFFFFFFFFFFFFFFFFFFFFFFF AND PUSH20 0xFFFFFFFFFFFFFFFFFFFFFFFFFFFFFFFFFFFFFFFF AND DUP2 MSTORE PUSH1 0x20 ADD SWAP1 DUP2 MSTORE PUSH1 0x20 ADD PUSH1 0x0 KECCAK256 PUSH1 0x0 SWAP1 SLOAD SWAP1 PUSH2 0x100 EXP SWAP1 DIV PUSH1 0xFF AND PUSH2 0xA99 JUMPI PUSH1 0x1 PUSH1 0x2 PUSH1 0x0 CALLER PUSH20 0xFFFFFFFFFFFFFFFFFFFFFFFFFFFFFFFFFFFFFFFF AND PUSH20 0xFFFFFFFFFFFFFFFFFFFFFFFFFFFFFFFFFFFFFFFF AND DUP2 MSTORE PUSH1 0x20 ADD SWAP1 DUP2 MSTORE PUSH1 0x20 ADD PUSH1 0x0 KECCAK256 PUSH1 0x0 PUSH2 0x100 EXP DUP2 SLOAD DUP2 PUSH1 0xFF MUL NOT AND SWAP1 DUP4 ISZERO ISZERO MUL OR SWAP1 SSTORE POP PUSH1 0x1 PUSH1 0x3 PUSH1 0x0 DUP3 DUP3 SLOAD ADD SWAP3 POP POP DUP2 SWAP1 SSTORE POP JUMPDEST JUMP JUMPDEST PUSH1 0x0 PUSH1 0x4 DUP3 DUP2 SLOAD DUP2 LT PUSH2 0xAAA JUMPI INVALID JUMPDEST SWAP1 PUSH1 0x0 MSTORE PUSH1 0x20 PUSH1 0x0 KECCAK256 SWAP1 PUSH1 0x5 MUL ADD SWAP1 POP PUSH1 0x2 PUSH1 0x0 CALLER PUSH20 0xFFFFFFFFFFFFFFFFFFFFFFFFFFFFFFFFFFFFFFFF AND PUSH20 0xFFFFFFFFFFFFFFFFFFFFFFFFFFFFFFFFFFFFFFFF AND DUP2 MSTORE PUSH1 0x20 ADD SWAP1 DUP2 MSTORE PUSH1 0x20 ADD PUSH1 0x0 KECCAK256 PUSH1 0x0 SWAP1 SLOAD SWAP1 PUSH2 0x100 EXP SWAP1 DIV PUSH1 0xFF AND DUP1 ISZERO PUSH2 0xB5F JUMPI POP DUP1 PUSH1 0x3 ADD PUSH1 0x0 CALLER PUSH20 0xFFFFFFFFFFFFFFFFFFFFFFFFFFFFFFFFFFFFFFFF AND PUSH20 0xFFFFFFFFFFFFFFFFFFFFFFFFFFFFFFFFFFFFFFFF AND DUP2 MSTORE PUSH1 0x20 ADD SWAP1 DUP2 MSTORE PUSH1 0x20 ADD PUSH1 0x0 KECCAK256 PUSH1 0x0 SWAP1 SLOAD SWAP1 PUSH2 0x100 EXP SWAP1 DIV PUSH1 0xFF AND ISZERO JUMPDEST DUP1 ISZERO PUSH2 0xB7A JUMPI POP DUP1 PUSH1 0x2 ADD PUSH1 0x14 SWAP1 SLOAD SWAP1 PUSH2 0x100 EXP SWAP1 DIV PUSH1 0xFF AND ISZERO JUMPDEST PUSH2 0xB83 JUMPI PUSH1 0x0 DUP1 REVERT JUMPDEST PUSH1 0x1 DUP2 PUSH1 0x3 ADD PUSH1 0x0 CALLER PUSH20 0xFFFFFFFFFFFFFFFFFFFFFFFFFFFFFFFFFFFFFFFF AND PUSH20 0xFFFFFFFFFFFFFFFFFFFFFFFFFFFFFFFFFFFFFFFF AND DUP2 MSTORE PUSH1 0x20 ADD SWAP1 DUP2 MSTORE PUSH1 0x20 ADD PUSH1 0x0 KECCAK256 PUSH1 0x0 PUSH2 0x100 EXP DUP2 SLOAD DUP2 PUSH1 0xFF MUL NOT AND SWAP1 DUP4 ISZERO ISZERO MUL OR SWAP1 SSTORE POP PUSH1 0x1 DUP2 PUSH1 0x4 ADD PUSH1 0x0 DUP3 DUP3 SLOAD ADD SWAP3 POP POP DUP2 SWAP1 SSTORE POP POP POP JUMP JUMPDEST PUSH1 0x40 MLOAD DUP1 PUSH1 0xA0 ADD PUSH1 0x40 MSTORE DUP1 PUSH1 0x60 DUP2 MSTORE PUSH1 0x20 ADD PUSH1 0x0 DUP2 MSTORE PUSH1 0x20 ADD PUSH1 0x0 PUSH20 0xFFFFFFFFFFFFFFFFFFFFFFFFFFFFFFFFFFFFFFFF AND DUP2 MSTORE PUSH1 0x20 ADD PUSH1 0x0 ISZERO ISZERO DUP2 MSTORE PUSH1 0x20 ADD PUSH1 0x0 DUP2 MSTORE POP SWAP1 JUMP JUMPDEST DUP3 DUP1 SLOAD PUSH1 0x1 DUP2 PUSH1 0x1 AND ISZERO PUSH2 0x100 MUL SUB AND PUSH1 0x2 SWAP1 DIV SWAP1 PUSH1 0x0 MSTORE PUSH1 0x20 PUSH1 0x0 KECCAK256 SWAP1 PUSH1 0x1F ADD PUSH1 0x20 SWAP1 DIV DUP2 ADD SWAP3 DUP3 PUSH1 0x1F LT PUSH2 0xC7C JUMPI DUP1 MLOAD PUSH1 0xFF NOT AND DUP4 DUP1 ADD OR DUP6 SSTORE PUSH2 0xCAA JUMP JUMPDEST DUP3 DUP1 ADD PUSH1 0x1 ADD DUP6 SSTORE DUP3 ISZERO PUSH2 0xCAA JUMPI SWAP2 DUP3 ADD JUMPDEST DUP3 DUP2 GT ISZERO PUSH2 0xCA9 JUMPI DUP3 MLOAD DUP3 SSTORE SWAP2 PUSH1 0x20 ADD SWAP2 SWAP1 PUSH1 0x1 ADD SWAP1 PUSH2 0xC8E JUMP JUMPDEST JUMPDEST POP SWAP1 POP PUSH2 0xCB7 SWAP2 SWAP1 PUSH2 0xCBB JUMP JUMPDEST POP SWAP1 JUMP JUMPDEST JUMPDEST DUP1 DUP3 GT ISZERO PUSH2 0xCD4 JUMPI PUSH1 0x0 DUP2 PUSH1 0x0 SWAP1 SSTORE POP PUSH1 0x1 ADD PUSH2 0xCBC JUMP JUMPDEST POP SWAP1 JUMP INVALID LOG2 PUSH5 0x6970667358 0x22 SLT KECCAK256 0xC4 PUSH31 0xFBC2BC1AEABFFCDA5E802F12AC4C23B0860BDFFEC952DD619C5BD605C6C664 PUSH20 0x6F6C634300060C0033A264697066735822122068 0x2C SELFDESTRUCT RETURN 0xEA 0xEE 0xC9 MLOAD SWAP15 0x26 0xB6 SWAP15 0x27 0xF9 PUSH24 0xC324890B0878FA8A4F490E26F16CE1CD3564736F6C634300 MOD 0xC STOP CALLER "
    },
    "gasEstimates": {
      "creation": {
        "codeDepositCost": "853000",
        "executionCost": "890",
        "totalCost": "853890"
      },
      "external": {
        "campaigns(uint256)": "1989",
        "createCampaign(uint256)": "infinite",
        "getCampaigns()": "infinite"
      }
    },
    "methodIdentifiers": {
      "campaigns(uint256)": "141961bc",
      "createCampaign(uint256)": "a3303a75",
      "getCampaigns()": "a6b03633"
    }
  },
  "storageLayout": {
    "storage": [
      {
        "astId": 4,
        "contract": "Campaign.sol:CampaignFactory",
        "label": "campaigns",
        "offset": 0,
        "slot": "0",
        "type": "t_array(t_address)dyn_storage"
      }
    ],
    "types": {
      "t_address": {
        "encoding": "inplace",
        "label": "address",
        "numberOfBytes": "20"
      },
      "t_array(t_address)dyn_storage": {
        "base": "t_address",
        "encoding": "dynamic_array",
        "label": "address[]",
        "numberOfBytes": "32"
      }
    }
  },
  "userdoc": {
    "kind": "user",
    "methods": {},
    "version": 1
  }
}